:100000000C9435000C945D000C945D000C945D0024
:100010000C945D000C945D000C945D000C945D00EC
:100020000C945D000C945D000C945D000C945D00DC
:100030000C945D000C945D000C945D000C945D00CC
:100040000C944C020C945D000C941A020C94F40174
:100050000C945D000C945D000C945D000C945D00AC
:100060000C945D000C945D00160411241FBECFEFAC
:10007000D8E0DEBFCDBF11E0A0E0B1E0EAEDF8E0EE
:1000800002C005900D92AC37B107D9F726E0ACE776
:10009000B1E001C01D92A532B207E1F710E0C5E35F
:1000A000D0E004C02197FE010E946504C433D1074B
:1000B000C9F70E9496020C946B040C940000AF9256
:1000C000BF92CF92DF92EF92FF920F931F93CF9345
:1000D000DF936C017B018B01040F151FEB015E01A7
:1000E000AE18BF08C017D10759F06991D601ED913C
:1000F000FC910190F081E02DC6010995892B79F7DB
:10010000C501DF91CF911F910F91FF90EF90DF908C
:10011000CF90BF90AF900895FC01538D448D252F53
:1001200030E0842F90E0821B930B541710F0CF9691
:10013000089501970895FC01918D828D981761F0C3
:10014000A28DAE0FBF2FB11D5D968C91928D9F5FDA
:100150009F73928F90E008958FEF9FEF0895FC01B9
:10016000918D828D981731F0828DE80FF11D858D6C
:1001700090E008958FEF9FEF0895FC01918D228DFF
:10018000892F90E0805C9F4F821B91098F73992784
:10019000089588E895E00E94BD0021E0892B09F4CC
:1001A00020E0822F089580E090E0892B29F00E94C2
:1001B000C90081110C9400000895FC01A48DA80FC2
:1001C000B92FB11DA35ABF4F2C91848D90E0019699
:1001D0008F739927848FA689B7892C93A089B189B9
:1001E0008C91837080648C93938D848D981306C05A
:1001F0000288F389E02D80818F7D80830895EF92BE
:10020000FF920F931F93CF93DF93EC0181E0888FD0
:100210009B8D8C8D98131AC0E889F989808185FFA0
:1002200015C09FB7F894EE89FF896083E889F98942
:1002300080818370806480839FBF81E090E0DF9144
:10024000CF911F910F91FF90EF900895F62E0B8D97
:1002500010E00F5F1F4F0F731127E02E8C8D8E1152
:100260000CC00FB607FCFACFE889F989808185FFB9
:10027000F5CFCE010E94DD00F1CFEB8DEC0FFD2F0D
:10028000F11DE35AFF4FF0829FB7F8940B8FEA8974
:10029000FB8980818062CFCFCF93DF93EC01888D83
:1002A0008823B9F0AA89BB89E889F9898C9185FDF1
:1002B00003C0808186FD0DC00FB607FCF7CF8C917F
:1002C00085FFF2CF808185FFEDCFCE010E94DD005A
:1002D000E9CFDF91CF9108958E50806480937C00A8
:1002E00080917A00806480937A0080917A0086FD04
:1002F000FCCF809178009091790008953FB7F894F1
:100300008091810190918201A0918301B09184013B
:1003100026B5A89B05C02F3F19F00196A11DB11D60
:100320003FBFBA2FA92F982F8827BC01CD01620F9C
:10033000711D811D911D42E0660F771F881F991F57
:100340004A95D1F70895FC0101900020E9F7319713
:10035000AF01481B590BBC0188E895E00C945F0085
:100360008F929F92AF92BF920F931F93CF93DF9381
:10037000CDB7DEB7A1970FB6F894DEBF0FBECDBFE5
:1003800019A2423008F44AE08E010F5D1F4F842EFF
:10039000912CB12CA12CA50194010E944304E62FBD
:1003A000B901CA01EA30F4F4E05DD801EE938D01A1
:1003B000232B242B252B79F790E080E0109719F060
:1003C000CD010E94A301A1960FB6F894DEBF0FBE27
:1003D000CDBFDF91CF911F910F91BF90AF909F90B4
:1003E0008F900895E95CE1CF1F920F920FB60F92A4
:1003F00011242F933F934F935F936F937F938F932A
:100400009F93AF93BF93EF93FF9388E895E00E948B
:10041000DD00FF91EF91BF91AF919F918F917F91FF
:100420006F915F914F913F912F910F900FBE0F9061
:100430001F9018951F920F920FB60F9211242F93B1
:100440008F939F93EF93FF93E0919805F091990517
:100450008081E0919E05F0919F0582FD1BC09081F7
:100460008091A1058F5F8F732091A205821741F0C3
:10047000E091A105F0E0E857FA4F958F8093A10530
:10048000FF91EF919F918F912F910F900FBE0F9041
:100490001F9018958081F4CF1F920F920FB60F9284
:1004A00011242F933F938F939F93AF93BF9380918A
:1004B0007D0190917E01A0917F01B09180013091EA
:1004C0007C0123E0230F2D3758F50196A11DB11DA6
:1004D00020937C0180937D0190937E01A0937F0106
:1004E000B09380018091810190918201A09183015C
:1004F000B09184010196A11DB11D8093810190935B
:100500008201A0938301B0938401BF91AF919F9129
:100510008F913F912F910F900FBE0F901F901895C4
:1005200026E8230F0296A11DB11DD2CF789484B581
:10053000826084BD84B5816084BD85B5826085BDDF
:1005400085B5816085BD80916E00816080936E006D
:10055000109281008091810082608093810080915F
:100560008100816080938100809180008160809310
:1005700080008091B10084608093B1008091B000D0
:1005800081608093B00080917A00846080937A00CB
:1005900080917A00826080937A0080917A008160F5
:1005A00080937A0080917A00806880937A0010921C
:1005B000C1008FEF8AB9E0919805F091990582E02A
:1005C0008083E0919405F09195051082E091960565
:1005D000F09197058FEC80831092A005E0919C0527
:1005E000F0919D0586E08083E0919A05F0919B054E
:1005F000808180618083E0919A05F0919B058081E4
:1006000088608083E0919A05F0919B0580818068E5
:100610008083E0919A05F0919B0580818F7D808396
:1006200080917A00846080937A0080917A008D7F37
:1006300080937A0080917A008E7F80937A0034E6EE
:10064000C32ED12CE12CF12C4AE9442E512C612CE3
:10065000712C22242394312C0E947E014B015C01D9
:100660008091910181110BC040928D0150928E01B9
:1006700060928F017092900121E02093910180910E
:10068000890190918A01A0918B01B0918C01B501F3
:10069000A401481B590B6A0B7B0B80918D01909133
:1006A0008E01A0918F01B0919001481759076A07F8
:1006B0007B0760F1609185017091860180918701CF
:1006C00090918801A70196010E9443046E5E7E4FBF
:1006D000FB0180818BB98092890190928A01A0925E
:1006E0008B01B0928C018091850190918601A0913F
:1006F0008701B09188010196A11DB11D80938501EC
:1007000090938601A0938701B0938801109183058F
:100710008091840590918505A0918605B09187050B
:10072000A5019401281B390B4A0B5B0BDA01C901A7
:10073000843F9140A105B105D8F11A3FC8F5C12FFA
:10074000D0E08091810590918205CC0FDD1F892B2F
:1007500001F58EE00E946C01C357DC4F99838883BA
:1007600030928205209281058092840590928505C1
:10077000A0928605B092870540E050E0452B09F431
:100780006BCF0E94C900882309F466CF0E94000045
:1007900063CF8FE00E946C01C756DE4F9983888338
:1007A00010928205109281051F5F10938305DCCFA4
:1007B0001A3F11F7CDE8D3E009E911E06991799189
:1007C00090E080E04AE00E94B00187E791E00E945B
:1007D000A301F801619171918F0190E080E04AE0FE
:1007E0000E94B00189E791E00E94A3010E947E016E
:1007F0004B015C010E947E01681979098A099B09F5
:10080000683E734081059105A8F3F5E0C138DF0724
:10081000A9F688E895E00E94BD00892BD1F31092DB
:10082000830588E895E00E949B00A6CFE8E8F5E004
:100830001382128288EE93E0A0E0B0E08483958377
:10084000A683B78384E091E09183808385EC90E078
:100850009587848784EC90E09787868780EC90E08A
:10086000918B808B81EC90E0938B828B82EC90E07B
:10087000958B848B86EC90E0978B868B118E128EF5
:10088000138E148E0895A1E21A2EAA1BBB1BFD0124
:100890000DC0AA1FBB1FEE1FFF1FA217B307E4075F
:1008A000F50720F0A21BB30BE40BF50B661F771FB7
:1008B000881F991F1A9469F7609570958095909597
:1008C0009B01AC01BD01CF010895EE0FFF1F059004
:0A08D000F491E02D0994F894FFCF95
:1008DA0000000000FF005F008C004C01BD009B007F
:1008EA00AF0080888F979FA7AEB6BDC4CAD1D7DCA8
:1008FA00E2E7EBEFF3F6F9FBFDFEFFFFFFFEFDFB80
:10090A00F9F6F3EFEBE7E2DCD7D1CAC4BDB6AEA77E
:10091A009F978F888077706860585149423B352E7F
:10092A0028231D1814100C090604020100000001F6
:10093A00020406090C1014181D23282E353B4249BF
:0C094A00515860687077802C000D0A0086
:107E0000112484B714BE81FFF0D085E080938100F7
:107E100082E08093C00088E18093C10086E0809377
:107E2000C20080E18093C4008EE0C9D0259A86E02C
:107E300020E33CEF91E0309385002093840096BBD3
:107E4000B09BFECF1D9AA8958150A9F7CC24DD24C4
:107E500088248394B5E0AB2EA1E19A2EF3E0BF2EE7
:107E6000A2D0813461F49FD0082FAFD0023811F036
:107E7000013811F484E001C083E08DD089C08234E0
:107E800011F484E103C0853419F485E0A6D080C0E4
:107E9000853579F488D0E82EFF2485D0082F10E0AE
:107EA000102F00270E291F29000F111F8ED06801E7
:107EB0006FC0863521F484E090D080E0DECF843638
:107EC00009F040C070D06FD0082F6DD080E0C81688
:107ED00080E7D80618F4F601B7BEE895C0E0D1E017
:107EE00062D089930C17E1F7F0E0CF16F0E7DF06D8
:107EF00018F0F601B7BEE89568D007B600FCFDCFD4
:107F0000A601A0E0B1E02C9130E011968C91119780
:107F100090E0982F8827822B932B1296FA010C0160
:107F200087BEE89511244E5F5F4FF1E0A038BF0790
:107F300051F7F601A7BEE89507B600FCFDCF97BE46
:107F4000E89526C08437B1F42ED02DD0F82E2BD052
:107F50003CD0F601EF2C8F010F5F1F4F84911BD097
:107F6000EA94F801C1F70894C11CD11CFA94CF0C13
:107F7000D11C0EC0853739F428D08EE10CD085E9AC
:107F80000AD08FE07ACF813511F488E018D01DD067
:107F900080E101D065CF982F8091C00085FFFCCF94
:107FA0009093C60008958091C00087FFFCCF809118
:107FB000C00084FD01C0A8958091C6000895E0E648
:107FC000F0E098E1908380830895EDDF803219F02E
:107FD00088E0F5DFFFCF84E1DECF1F93182FE3DFCA
:107FE0001150E9F7F2DF1F91089580E0E8DFEE27F6
:047FF000FF270994CA
:027FFE00040479
:0400000300007E007B
:00000001FF
