:100000000C9435000C945D000C945D000C945D0024
:100010000C945D000C945D000C945D000C945D00EC
:100020000C945D000C945D000C945D000C945D00DC
:100030000C945D000C945D000C945D000C945D00CC
:100040000C9436020C945D000C9404020C94DE01B6
:100050000C945D000C945D000C945D000C945D00AC
:100060000C945D000C945D00830411241FBECFEF3F
:10007000D8E0DEBFCDBF11E0A0E0B1E0EAEFF2E1F1
:1000800002C005900D92AA38B107D9F728E0AAE876
:10009000B1E001C01D92AA38B207E1F710E0C5E354
:1000A000D0E004C02197FE010E949D06C433D10711
:1000B000C9F70E9480020C947B090C940000AF9257
:1000C000BF92CF92DF92EF92FF920F931F93CF9345
:1000D000DF936C017B018B01040F151FEB015E01A7
:1000E000AE18BF08C017D10759F06991D601ED913C
:1000F000FC910190F081E02DC6010995892B79F7DB
:10010000C501DF91CF911F910F91FF90EF90DF908C
:10011000CF90BF90AF900895FC01538D448D252F53
:1001200030E0842F90E0821B930B541710F0CF9691
:10013000089501970895FC01918D828D981761F0C3
:10014000A28DAE0FBF2FB11D5D968C91928D9F5FDA
:100150009F73928F90E008958FEF9FEF0895FC01B9
:10016000918D828D981731F0828DE80FF11D858D6C
:1001700090E008958FEF9FEF0895FC01918D228DFF
:10018000892F90E0805C9F4F821B91098F73992784
:1001900008958DEE97E00E94BD0021E0892B09F4BF
:1001A00020E0822F089580E090E0892B29F00E94C2
:1001B000C90081110C9400000895FC01A48DA80FC2
:1001C000B92FB11DA35ABF4F2C91848D90E0019699
:1001D0008F739927848FA689B7892C93A089B189B9
:1001E0008C91837080648C93938D848D981306C05A
:1001F0000288F389E02D80818F7D80830895EF92BE
:10020000FF920F931F93CF93DF93EC0181E0888FD0
:100210009B8D8C8D98131AC0E889F989808185FFA0
:1002200015C09FB7F894EE89FF896083E889F98942
:1002300080818370806480839FBF81E090E0DF9144
:10024000CF911F910F91FF90EF900895F62E0B8D97
:1002500010E00F5F1F4F0F731127E02E8C8D8E1152
:100260000CC00FB607FCFACFE889F989808185FFB9
:10027000F5CFCE010E94DD00F1CFEB8DEC0FFD2F0D
:10028000F11DE35AFF4FF0829FB7F8940B8FEA8974
:10029000FB8980818062CFCFCF93DF93EC01888D83
:1002A0008823B9F0AA89BB89E889F9898C9185FDF1
:1002B00003C0808186FD0DC00FB607FCF7CF8C917F
:1002C00085FFF2CF808185FFEDCFCE010E94DD005A
:1002D000E9CFDF91CF910895FC0101900020E9F76B
:1002E0003197AF01481B590BBC018DEE97E00C9480
:1002F0005F008F929F92AF92BF920F931F93CF9305
:10030000DF93CDB7DEB7A1970FB6F894DEBF0FBE6F
:10031000CDBF19A2423008F44AE08E010F5D1F4F95
:10032000842E912CB12CA12CA50194010E9467066A
:10033000E62FB901CA01EA30F4F4E05DD801EE938A
:100340008D01232B242B252B79F790E080E010974B
:1003500019F0CD010E946C01A1960FB6F894DEBF92
:100360000FBECDBFDF91CF911F910F91BF90AF9086
:100370009F908F900895E95CE1CFCF92DF92EF924A
:10038000FF92CF93DF936B017C016DE28DEE97E0DE
:100390000E94FF00EC0166277727CB016C197D09CD
:1003A0008E099F094AE00E9479018C0F9D1FDF9101
:1003B000CF91FF90EF90DF90CF9008951F920F9212
:1003C0000FB60F9211242F933F934F935F936F9328
:1003D0007F938F939F93AF93BF93EF93FF938DEE94
:1003E00097E00E94DD00FF91EF91BF91AF919F9147
:1003F0008F917F916F915F914F913F912F910F90CE
:100400000FBE0F901F9018951F920F920FB60F926C
:1004100011242F938F939F93EF93FF93E091FD0708
:10042000F091FE078081E0910308F091040882FDBD
:100430001BC09081809106088F5F8F732091070801
:10044000821741F0E0910608F0E0E351F84F958FF4
:1004500080930608FF91EF919F918F912F910F90BC
:100460000FBE0F901F9018958081F4CF1F920F92AE
:100470000FB60F9211242F933F938F939F93AF93B7
:10048000BF9380918B0190918C01A0918D01B091CF
:100490008E0130918A0123E0230F2D3758F5019604
:1004A000A11DB11D20938A0180938B0190938C0133
:1004B000A0938D01B0938E0180918F019091900156
:1004C000A0919101B09192010196A11DB11D80935F
:1004D0008F0190939001A0939101B0939201BF91ED
:1004E000AF919F918F913F912F910F900FBE0F90E1
:1004F0001F90189526E8230F0296A11DB11DD2CF9B
:10050000CF93DF93CDB7DEB766970FB6F894DEBF13
:100510000FBECDBF789484B5826084BD84B5816000
:1005200084BD85B5826085BD85B5816085BD8091BE
:100530006E00816080936E00109281008091810036
:10054000826080938100809181008160809381002E
:10055000809180008160809380008091B1008460F0
:100560008093B1008091B00081608093B000809151
:100570007A00846080937A0080917A008260809310
:100580007A0080917A00816080937A0080917A006D
:10059000806880937A001092C1008FEF8AB9E09151
:1005A000FD07F091FE0782E08083E091F907F0916A
:1005B000FA071082E091FB07F091FC0780E180834D
:1005C00010920508E0910108F091020886E080830E
:1005D000E091FF07F0910008808180618083E091C5
:1005E000FF07F0910008808188608083E091FF0719
:1005F000F0910008808180688083E091FF07F0918E
:10060000000880818F7D808380917A008460809350
:100610007A0080917A008D7F80937A0080917A00B1
:100620008E7F80937A0074E6872E912CA12CB12CBA
:100630008E010F5F1F4F1801E7EC4E2E5524539487
:10064000612C712C9FB7F894C0908F01D0909001CD
:10065000E0909101F090920186B5A89B07C08F3F72
:1006600029F01FEFC11AD10AE10AF10A9FBFFE2C3F
:10067000ED2CDC2CCC24C80ED11CE11CF11C62E05A
:10068000CC0CDD1CEE1CFF1C6A95D1F780919F01FC
:1006900081110BC040929B0150929C0160929D0180
:1006A00070929E0121E020939F018091970190918B
:1006B0009801A0919901B0919A01B701A601481B38
:1006C000590B6A0B7B0B80919B0190919C01A0912F
:1006D0009D01B0919E01481759076A077B0760F199
:1006E0006091930170919401809195019091960190
:1006F000A50194010E9467066E5E7E4FFB0180811A
:100700008BB9C0929701D0929801E0929901F09232
:100710009A018091930190919401A0919501B091DB
:1007200096010196A11DB11D8093930190939401B0
:10073000A0939501B09396018091E7079091E80707
:100740004091E9075091EA076091EB077091EC073F
:1007500097018601041B150B260B370BB901A80165
:10076000443F514061057105E0F1803223E092077A
:10077000C0F530E430937C0080917A0080648093EF
:100780007A0080917A0086FDFCCF3091780020912C
:1007900079008091E7079091E807FC01EE0FFF1FB9
:1007A000E955FE4F23273227232731832083C09228
:1007B000E907D092EA07E092EB07F092EC07019686
:1007C0009093E8078093E70700E010E0012B09F41D
:1007D00039CF0E94C900882309F434CF0E94000059
:1007E00031CF8032934081F70FE612E027EA31E003
:1007F0003E8B2D8B2FEF33E070E060E087EE97E0CB
:100800008017910771F0F801819191918F0168171C
:10081000790728F08217930708F49C01CB01BC01EB
:10082000EDCF621B730B90E080E00E94580520E042
:1008300030E040EA50E40E94E60520E030EC4FE76B
:1008400054E40E94B0046B017C0120E030E048ECED
:1008500052E40E94E6050E942205CB0164E670E0A6
:100860000E9453069F938F93C701B6010E942205F1
:100870007F936F9327E731E03F932F933F922F921F
:100880000E94A3060FB6F894DEBF0FBECDBF2D8920
:100890003E890217130741F1C1010E946C01ED89E5
:1008A000FE8961917191FE8BED8B90E080E04AE0D2
:1008B0000E94790185E891E00E946C014AE060E0C5
:1008C00070E0CB010E94790185E891E00E946C0103
:1008D0004AE06FEF73E080E090E00E94790187E8E2
:1008E00091E00E946C01D3CF8DEE97E00E94BD0095
:1008F000892BD1F31092E8071092E7078DEE97E06D
:100900000E949B0061CFEDEEF7E01382128288EE29
:1009100093E0A0E0B0E084839583A683B78384E06E
:1009200091E09183808385EC90E09587848784ECC7
:1009300090E09787868780EC90E0918B808B81ECAC
:1009400090E0938B828B82EC90E0958B848B86EC8D
:1009500090E0978B868B118E128E138E148E0895D5
:100960000E94C4040C94AC050E94A50558F00E9496
:100970009E0540F029F45F3F29F00C949505511134
:100980000C94E0050C949B050E94BD0568F3992327
:10099000B1F3552391F3951B550BBB27AA2762177B
:1009A0007307840738F09F5F5F4F220F331F441F88
:1009B000AA1FA9F335D00E2E3AF0E0E832D09150BC
:1009C0005040E695001CCAF72BD0FE2F29D0660FA9
:1009D000771F881FBB1F261737074807AB07B0E8EC
:1009E00009F0BB0B802DBF01FF2793585F4F3AF0F2
:1009F0009E3F510578F00C9495050C94E0055F3FFF
:100A0000E4F3983ED4F3869577956795B795F79577
:100A10009F5FC9F7880F911D9695879597F908955F
:100A2000E1E0660F771F881FBB1F621773078407FB
:100A3000BA0720F0621B730B840BBA0BEE1F88F70A
:100A4000E09508950E9429056894B1110C94E00581
:100A500008950E94C50588F09F5798F0B92F9927EF
:100A6000B751B0F0E1F0660F771F881F991F1AF099
:100A7000BA95C9F714C0B13091F00E94DF05B1E01A
:100A800008950C94DF05672F782F8827B85F39F019
:100A9000B93FCCF3869577956795B395D9F73EF432
:100AA00090958095709561957F4F8F4F9F4F0895DA
:100AB000E89409C097FB3EF49095809570956195F8
:100AC0007F4F8F4F9F4F9923A9F0F92F96E9BB27AE
:100AD0009395F695879577956795B795F111F8CF2A
:100AE000FAF4BB0F11F460FF1BC06F5F7F4F8F4F95
:100AF0009F4F16C0882311F096E911C0772321F08B
:100B00009EE8872F762F05C0662371F096E8862F22
:100B100070E060E02AF09A95660F771F881FDAF779
:100B2000880F9695879597F9089597F99F6780E8BC
:100B300070E060E008959FEF80EC089500240A942F
:100B40001616170618060906089500240A941216A8
:100B50001306140605060895092E0394000C11F4DB
:100B6000882352F0BB0F40F4BF2B11F460FF04C088
:100B70006F5F7F4F8F4F9F4F089557FD9058440FE1
:100B8000551F59F05F3F71F04795880F97FB991FEC
:100B900061F09F3F79F087950895121613061406A9
:100BA000551FF2CF4695F1DF08C016161706180636
:100BB000991FF1CF86957105610508940895E89411
:100BC000BB2766277727CB0197F908950E94F9057F
:100BD0000C94AC050E949E0538F00E94A50520F0FB
:100BE000952311F00C9495050C949B0511240C94FD
:100BF000E0050E94BD0570F3959FC1F3950F50E08D
:100C0000551F629FF001729FBB27F00DB11D639FBE
:100C1000AA27F00DB11DAA1F649F6627B00DA11D64
:100C2000661F829F2227B00DA11D621F739FB00D0A
:100C3000A11D621F839FA00D611D221F749F33277A
:100C4000A00D611D231F849F600D211D822F762F13
:100C50006A2F11249F5750409AF0F1F088234AF0F0
:100C6000EE0FFF1FBB1F661F771F881F915050405C
:100C7000A9F79E3F510580F00C9495050C94E00572
:100C80005F3FE4F3983ED4F3869577956795B795E3
:100C9000F795E7959F5FC1F7FE2B880F911D9695FD
:100CA000879597F9089597FB072E16F4009407D0BF
:100CB00077FD09D00E94890607FC05D03EF4909587
:100CC00081959F4F0895709561957F4F0895A1E29A
:100CD0001A2EAA1BBB1BFD010DC0AA1FBB1FEE1FB6
:100CE000FF1FA217B307E407F50720F0A21BB30B01
:100CF000E40BF50B661F771F881F991F1A9469F77D
:100D000060957095809590959B01AC01BD01CF01D8
:100D10000895AA1BBB1B51E107C0AA1FBB1FA61742
:100D2000B70710F0A61BB70B881F991F5A95A9F794
:100D300080959095BC01CD010895EE0FFF1F0590A1
:100D4000F491E02D0994AEE0B0E0E9EAF6E00C940D
:100D500052090D891E8986E08C831A8309838FEFDF
:100D60009FE79E838D83AE01475E5F4F6F89788DCD
:100D7000CE0101960E94C6062F813885020F131FEF
:100D8000F80110822E96E4E00C946E09ABE0B0E01E
:100D9000ECECF6E00C9444097C013B018A01FC0177
:100DA00017821682838181FFC8C1CE0101965C0142
:100DB000F7019381F30193FD859193FF81913F01A9
:100DC000882309F453C1853239F493FD859193FF4B
:100DD00081913F01853229F4B70190E00E94B60865
:100DE000E7CF912C212C312CFFE1F31538F08B3219
:100DF00011F190F4803209F1833229F137FC3CC0C3
:100E000020ED280F2A3050F536FE20C08AE0989E4B
:100E1000200D1124922E06C08D3291F0803371F78F
:100E2000689430F8F30193FD859193FF81913F0120
:100E30008111DACF21C0689431F8689432F8F2CF8A
:100E4000689433F8EFCF689434F8ECCFEAE02E9E44
:100E5000200D1124222E689435F8E4CF8E3229F427
:100E600036FC04C1689436F8DDCF8C3619F46894EA
:100E700037F8D8CF8836B1F2982F9F7D95549330AC
:100E8000E0F08336A1F18337C1F1833509F063C007
:100E90002801F2E04F0E511CF801C080D180692D6D
:100EA00070E036FC02C06FEF7FEFC6010E94A00821
:100EB0004C01689437F882010AC00C5F1F4FFFE3B2
:100EC000F98388248394912C6501E89437F833FEE4
:100ED0002DC0522C8114910471F5552009F468CF6E
:100EE000B70180E290E00E94B6085A94F6CFF8016C
:100EF000808189830E5F1F4FE4CF2801F2E04F0EFF
:100F0000511CF801C080D180692D70E036FC02C010
:100F10006FEF7FEFC6010E94AB084C018201D5CF75
:100F2000B70180E290E00E94B6082A9428141904C0
:100F300009F0B0F7CECFF60137FC859137FE8191ED
:100F40006F01B70190E00E94B60851105A94F1E089
:100F50008F1A9108BFCF843619F0893609F077C00F
:100F6000F80137FE6BC060817181828193810C5FD3
:100F70001F4FF32DFF763F2E97FF09C09095809568
:100F8000709561957F4F8F4F9F4F689437F82AE097
:100F900030E0A5010E94E608C82ECA188C2C432C0C
:100FA00036FE0CC0E89440F8C91440F434FE05C085
:100FB00032FC03C0F32DFE7E4F2E892C44FE95C0DB
:100FC000FE01EC0DF11D8081803309F087C0242DD6
:100FD000297E422E842D8870582E43FC95C040FEF9
:100FE0008FC09C2C821418F42C0C922C981844FE60
:100FF00091C0B70180E390E00E94B60842FE09C0AC
:1010000088E790E041FE02C088E590E0B7010E94C9
:10101000B608C91408F48AC0CA94D12C9FEFC91A23
:10102000D90ACA0CDB1CF60182916F01B70190E06E
:101030000E94B608AC14BD04B1F74FCF6081718136
:10104000072E000C880B990B0E5F1F4F92CFD32CED
:10105000E894D4F82AE030E0853739F1232D297F50
:10106000D22E8F3601F148F48835A9F0F701868138
:1010700097812B96E2E10C946009803749F088371C
:10108000A9F7D4FE02C06894D2F820E130E00DC088
:101090006894D4F8F6CF34FE03C0822F8660D82E31
:1010A00020E132E002C028E030E0F801D7FE0FC0B6
:1010B00060817181828193810C5F1F4FA5010E9425
:1010C000E608C82ECA183D2CE89437F867CF60812F
:1010D000718190E080E00E5F1F4FF0CF42FC02C0B4
:1010E000839478CF8394839475CF842D867809F484
:1010F00071CFF6CFB70180E290E00E94B6088394EA
:101100008214C0F3512C73CF522C5818821408F457
:101110006ECFF8CF842D867809F47BCF8BE241FE29
:1011200080E247FC8DE2B70190E071CFB70180E328
:1011300090E00E94B6089A946CCF8FEF9FEF99CF02
:10114000FC010590615070400110D8F78095909592
:101150008E0F9F1F0895FC01615070400190011097
:10116000D8F7809590958E0F9F1F08950F931F932A
:10117000CF93DF93182F092FEB018B8181FD09C0DD
:101180001FEF0FEF812F902FDF91CF911F910F91C4
:10119000089582FF14C02E813F818C819D81281784
:1011A00039073CF4E881F981CF010196998388835E
:1011B00010838E819F8101969F838E83E3CFE88584
:1011C000F985812F0995892BA1F3DACFFA01AA2796
:1011D000283051F1203181F1E8946F936E7F6E5F7A
:1011E0007F4F8F4F9F4FAF4FB1E03ED0B4E03CD028
:1011F000670F781F891F9A1FA11D680F791F8A1F0B
:10120000911DA11D6A0F711D811D911DA11D20D071
:1012100009F468943F912AE0269F11243019305D2B
:101220003193DEF6CF010895462F4770405D41931C
:10123000B3E00FD0C9F7F6CF462F4F70405D4A3369
:1012400018F0495D31FD4052419302D0A9F7EACF31
:10125000B4E0A6959795879577956795BA95C9F760
:1012600000976105710508959B01AC010A2E069453
:101270005795479537952795BA95C9F7620F731F0C
:10128000841F951FA01D08952F923F924F925F9249
:101290006F927F928F929F92AF92BF92CF92DF9286
:1012A000EF92FF920F931F93CF93DF93CDB7DEB7EB
:1012B000CA1BDB0B0FB6F894DEBF0FBECDBF09947F
:1012C0002A88398848885F846E847D848C849B84D6
:1012D000AA84B984C884DF80EE80FD800C811B81E4
:1012E000AA81B981CE0FD11D0FB6F894DEBF0FBE13
:0A12F000CDBFED010895F894FFCF83
:1012FA0000000000FF005F008C004C01BD009B0055
:10130A00AF0080888F979FA7AEB6BDC4CAD1D7DC7D
:10131A00E2E7EBEFF3F6F9FBFDFEFFFFFFFEFDFB55
:10132A00F9F6F3EFEBE7E2DCD7D1CAC4BDB6AEA754
:10133A009F978F888077706860585149423B352E55
:10134A0028231D1814100C090604020100000001CC
:10135A00020406090C1014181D23282E353B424995
:10136A00515860687077805670703D25642E25301C
:0A137A003264563A002C000D0A0000
:107E0000112484B714BE81FFF0D085E080938100F7
:107E100082E08093C00088E18093C10086E0809377
:107E2000C20080E18093C4008EE0C9D0259A86E02C
:107E300020E33CEF91E0309385002093840096BBD3
:107E4000B09BFECF1D9AA8958150A9F7CC24DD24C4
:107E500088248394B5E0AB2EA1E19A2EF3E0BF2EE7
:107E6000A2D0813461F49FD0082FAFD0023811F036
:107E7000013811F484E001C083E08DD089C08234E0
:107E800011F484E103C0853419F485E0A6D080C0E4
:107E9000853579F488D0E82EFF2485D0082F10E0AE
:107EA000102F00270E291F29000F111F8ED06801E7
:107EB0006FC0863521F484E090D080E0DECF843638
:107EC00009F040C070D06FD0082F6DD080E0C81688
:107ED00080E7D80618F4F601B7BEE895C0E0D1E017
:107EE00062D089930C17E1F7F0E0CF16F0E7DF06D8
:107EF00018F0F601B7BEE89568D007B600FCFDCFD4
:107F0000A601A0E0B1E02C9130E011968C91119780
:107F100090E0982F8827822B932B1296FA010C0160
:107F200087BEE89511244E5F5F4FF1E0A038BF0790
:107F300051F7F601A7BEE89507B600FCFDCF97BE46
:107F4000E89526C08437B1F42ED02DD0F82E2BD052
:107F50003CD0F601EF2C8F010F5F1F4F84911BD097
:107F6000EA94F801C1F70894C11CD11CFA94CF0C13
:107F7000D11C0EC0853739F428D08EE10CD085E9AC
:107F80000AD08FE07ACF813511F488E018D01DD067
:107F900080E101D065CF982F8091C00085FFFCCF94
:107FA0009093C60008958091C00087FFFCCF809118
:107FB000C00084FD01C0A8958091C6000895E0E648
:107FC000F0E098E1908380830895EDDF803219F02E
:107FD00088E0F5DFFFCF84E1DECF1F93182FE3DFCA
:107FE0001150E9F7F2DF1F91089580E0E8DFEE27F6
:047FF000FF270994CA
:027FFE00040479
:0400000300007E007B
:00000001FF
