:100000000C9435000C945D000C945D000C945D0024
:100010000C945D000C945D000C945D000C945D00EC
:100020000C945D000C945D000C945D000C945D00DC
:100030000C945D000C945D000C945D000C945D00CC
:100040000C9427020C945D000C94F5010C94CF01E4
:100050000C945D000C945D000C945D000C945D00AC
:100060000C945D000C945D00710411241FBECFEF51
:10007000D8E0DEBFCDBF11E0A0E0B1E0E0E4FFE0FA
:1000800002C005900D92AA39B107D9F727E0AAE975
:10009000B1E001C01D92AC30B207E1F710E0C5E35A
:1000A000D0E004C02197FE010E94C004C433D107F0
:1000B000C9F70E9471020C949E070C940000AF9245
:1000C000BF92CF92DF92EF92FF920F931F93CF9345
:1000D000DF936C017B018B01040F151FEB015E01A7
:1000E000AE18BF08C017D10759F06991D601ED913C
:1000F000FC910190F081E02DC6010995892B79F7DB
:10010000C501DF91CF911F910F91FF90EF90DF908C
:10011000CF90BF90AF900895FC01538D448D252F53
:1001200030E0842F90E0821B930B541710F0CF9691
:10013000089501970895FC01918D828D981761F0C3
:10014000A28DAE0FBF2FB11D5D968C91928D9F5FDA
:100150009F73928F90E008958FEF9FEF0895FC01B9
:10016000918D828D981731F0828DE80FF11D858D6C
:1001700090E008958FEF9FEF0895FC01918D228DFF
:10018000892F90E0805C9F4F821B91098F73992784
:1001900008958FE696E00E94BD0021E0892B09F4C6
:1001A00020E0822F089580E090E0892B29F00E94C2
:1001B000C90081110C9400000895FC01A48DA80FC2
:1001C000B92FB11DA35ABF4F2C91848D90E0019699
:1001D0008F739927848FA689B7892C93A089B189B9
:1001E0008C91837080648C93938D848D981306C05A
:1001F0000288F389E02D80818F7D80830895EF92BE
:10020000FF920F931F93CF93DF93EC0181E0888FD0
:100210009B8D8C8D98131AC0E889F989808185FFA0
:1002200015C09FB7F894EE89FF896083E889F98942
:1002300080818370806480839FBF81E090E0DF9144
:10024000CF911F910F91FF90EF900895F62E0B8D97
:1002500010E00F5F1F4F0F731127E02E8C8D8E1152
:100260000CC00FB607FCFACFE889F989808185FFB9
:10027000F5CFCE010E94DD00F1CFEB8DEC0FFD2F0D
:10028000F11DE35AFF4FF0829FB7F8940B8FEA8974
:10029000FB8980818062CFCFCF93DF93EC01888D83
:1002A0008823B9F0AA89BB89E889F9898C9185FDF1
:1002B00003C0808186FD0DC00FB607FCF7CF8C917F
:1002C00085FFF2CF808185FFEDCFCE010E94DD005A
:1002D000E9CFDF91CF9108958E50806480937C00A8
:1002E00080917A00806480937A0080917A0086FD04
:1002F000FCCF80917800909179000895FC010190E5
:100300000020E9F73197AF01481B590BBC018FE67C
:1003100096E00C945F008F929F92AF92BF920F93E2
:100320001F93CF93DF93CDB7DEB7A1970FB6F894A5
:10033000DEBF0FBECDBF19A2423008F44AE08E01E5
:100340000F5D1F4F842E912CB12CA12CA50194017F
:100350000E949E04E62FB901CA01EA30F4F4E05D80
:10036000D801EE938D01232B242B252B79F790E0D8
:1003700080E0109719F0CD010E947E01A1960FB682
:10038000F894DEBF0FBECDBFDF91CF911F910F91CB
:10039000BF90AF909F908F900895E95CE1CF1F923E
:1003A0000F920FB60F9211242F933F934F935F93A9
:1003B0006F937F938F939F93AF93BF93EF93FF932D
:1003C0008FE696E00E94DD00FF91EF91BF91AF9123
:1003D0009F918F917F916F915F914F913F912F915D
:1003E0000F900FBE0F901F9018951F920F920FB68F
:1003F0000F9211242F938F939F93EF93FF93E0918C
:100400007F06F09180068081E0918506F091860656
:1004100082FD1BC09081809188068F5F8F73209131
:100420008906821741F0E0918806F0E0E159F94F22
:10043000958F80938806FF91EF919F918F912F91D7
:100440000F900FBE0F901F9018958081F4CF1F92D0
:100450000F920FB60F9211242F933F938F939F9378
:10046000AF93BF9380919B0190919C01A0919D01BE
:10047000B0919E0130919A0123E0230F2D3758F55A
:100480000196A11DB11D20939A0180939B01909329
:100490009C01A0939D01B0939E0180919F0190913A
:1004A000A001A091A101B091A2010196A11DB11DD1
:1004B00080939F019093A001A093A101B093A2010A
:1004C000BF91AF919F918F913F912F910F900FBE50
:1004D0000F901F90189526E8230F0296A11DB11DBD
:1004E000D2CFCF93DF93CDB7DEB7A8970FB6F894EE
:1004F000DEBF0FBECDBF789484B5826084BD84B565
:10050000816084BD85B5826085BD85B5816085BD0E
:1005100080916E00816080936E00109281008091C6
:10052000810082608093810080918100816080934E
:100530008100809180008160809380008091B10073
:1005400084608093B1008091B00081608093B0009E
:1005500080917A00846080937A0080917A00826032
:1005600080937A0080917A00816080937A008091F4
:100570007A00806880937A001092C1008FEF8AB968
:10058000E0917F06F091800682E08083E0917B0617
:10059000F0917C061082E0917D06F0917E068FEC52
:1005A000808310928706E0918306F091840686E0AE
:1005B0008083E0918106F091820680818061808352
:1005C000E0918106F0918206808188608083E091CD
:1005D0008106F0918206808180688083E0918106A7
:1005E000F091820680818F7D808380917A00846083
:1005F00080937A0080917A008D7F80937A00809139
:100600007A008E7F80937A001E0125E1220E311C34
:1006100064E6862E912CA12CB12C9FB7F8944090C3
:100620009F015090A0016090A1017090A20186B539
:10063000A89B07C08F3F29F03FEF431A530A630A74
:10064000730A9FBF762C652C542C4424480E511CF1
:10065000611C711C52E0440C551C661C771C5A9599
:10066000D1F78091AF0181110BC08092AB019092C4
:10067000AC01A092AD01B092AE0141E04093AF0158
:100680008091A7019091A801A091A901B091AA0120
:10069000B301A201481B590B6A0B7B0B8091AB0184
:1006A0009091AC01A091AD01B091AE0148175907EE
:1006B0006A077B0770F16091A3017091A40180919A
:1006C000A5019091A60124E630E040E050E00E94B0
:1006D0009E046E5E7E4FFB0180818BB94092A70124
:1006E0005092A8016092A9017092AA018091A30181
:1006F0009091A401A091A501B091A6010196A11D20
:10070000B11D8093A3019093A401A093A501B09380
:10071000A6010091690610916A0680916B0690917E
:100720006C06A0916D06B0916E06A3019201281B84
:10073000390B4A0B5B0BDA01C901843F9140A105DB
:10074000B10508F444C00C3241E0140708F03FC082
:1007500080916706909168067801EE0CFF1C892B4A
:1007600019F58EE00E946C01F701E15FFB4F918368
:10077000808381E090E090936806809367064092C2
:100780006B0650926C0660926D0670926E0620E0C9
:1007900030E0232B09F441CF0E94C900882309F4DB
:1007A0003CCF0E94000039CF8FE00E946C01F7011E
:1007B000E954FE4F91838083109268061092670679
:1007C0000F5F1F4F10936A0600936906D8CF0C3253
:1007D0001140E9F687EB682E81E0782E9FE0E92E44
:1007E00094E0F92ED701F301CC24CA9423E0D22E51
:1007F00010E000E04FEF53E090E080E02FE034E0C5
:100800002E173F07B9F02D913D918217930728F0DD
:100810002417350708F4A9019C01819191910817CB
:10082000190728F08C159D0508F46C01C8018C018E
:10083000C901E4CF841B950B9F938F9347E751E049
:100840005F934F933F922F920E94C6040C191D098B
:100850001F930F93E3E8F1E0FF93EF9341E050E043
:100860004C0F5D1F5F934F930E94C6040FB6F89420
:10087000DEBF0FBECDBF97E6E91696E0F90611F18F
:10088000C1010E947E01F701619171917F0190E0A9
:1008900080E04AE00E948B0184E991E00E947E01A1
:1008A000CE0101960E947E01F301619171913F0199
:1008B00090E080E04AE00E948B0186E991E00E948E
:1008C0007E01D9CF8FE696E00E94BD00892BD1F33F
:1008D00010926A06109269068FE696E00E949B00CD
:1008E00056CFEFE6F6E01382128288EE93E0A0E0A6
:1008F000B0E084839583A683B78384E091E09183FD
:10090000808385EC90E09587848784EC90E09787DE
:10091000868780EC90E0918B808B81EC90E0938BCC
:10092000828B82EC90E0958B848B86EC90E0978BA9
:10093000868B118E128E138E148E0895A1E21A2EBC
:10094000AA1BBB1BFD010DC0AA1FBB1FEE1FFF1F73
:10095000A217B307E407F50720F0A21BB30BE40BC3
:10096000F50B661F771F881F991F1A9469F760950A
:100970007095809590959B01AC01BD01CF010895C4
:10098000EE0FFF1F0590F491E02D0994AEE0B0E06A
:10099000ECECF4E00C9475070D891E8986E08C83DD
:1009A0001A8309838FEF9FE79E838D83AE01475E95
:1009B0005F4F6F89788DCE0101960E94E9042F81E7
:1009C0003885020F131FF80110822E96E4E00C9474
:1009D0009107ABE0B0E0EFEEF4E00C9467077C0128
:1009E0003B018A01FC0117821682838181FFC8C105
:1009F000CE0101965C01F7019381F30193FD85918E
:100A000093FF81913F01882309F453C1853239F462
:100A100093FD859193FF81913F01853229F4B701C0
:100A200090E00E94D906E7CF912C212C312CFFE1D8
:100A3000F31538F08B3211F190F4803209F18332E2
:100A400029F137FC3CC020ED280F2A3050F536FE46
:100A500020C08AE0989E200D1124922E06C08D326F
:100A600091F0803371F7689430F8F30193FD85912C
:100A700093FF81913F018111DACF21C0689431F851
:100A8000689432F8F2CF689433F8EFCF689434F872
:100A9000ECCFEAE02E9E200D1124222E689435F82A
:100AA000E4CF8E3229F436FC04C1689436F8DDCFE9
:100AB0008C3619F4689437F8D8CF8836B1F2982F6D
:100AC0009F7D95549330E0F08336A1F18337C1F1D7
:100AD000833509F063C02801F2E04F0E511CF80184
:100AE000C080D180692D70E036FC02C06FEF7FEFCF
:100AF000C6010E94C3064C01689437F882010AC0FF
:100B00000C5F1F4FFFE3F98388248394912C6501C8
:100B1000E89437F833FE2DC0522C8114910471F5FE
:100B2000552009F468CFB70180E290E00E94D90611
:100B30005A94F6CFF801808189830E5F1F4FE4CF6E
:100B40002801F2E04F0E511CF801C080D180692DC0
:100B500070E036FC02C06FEF7FEFC6010E94CE0648
:100B60004C018201D5CFB70180E290E00E94D90606
:100B70002A942814190409F0B0F7CECFF60137FCF7
:100B8000859137FE81916F01B70190E00E94D906EF
:100B900051105A94F1E08F1A9108BFCF843619F0A2
:100BA000893609F077C0F80137FE6BC0608171812A
:100BB000828193810C5F1F4FF32DFF763F2E97FFAD
:100BC00009C090958095709561957F4F8F4F9F4F8D
:100BD000689437F82AE030E0A5010E940907C82E82
:100BE000CA188C2C432C36FE0CC0E89440F8C9146B
:100BF00040F434FE05C032FC03C0F32DFE7E4F2EC0
:100C0000892C44FE95C0FE01EC0DF11D80818033DE
:100C100009F087C0242D297E422E842D8870582EFD
:100C200043FC95C040FE8FC09C2C821418F42C0C01
:100C3000922C981844FE91C0B70180E390E00E9486
:100C4000D90642FE09C088E790E041FE02C088E56F
:100C500090E0B7010E94D906C91408F48AC0CA946A
:100C6000D12C9FEFC91AD90ACA0CDB1CF60182915C
:100C70006F01B70190E00E94D906AC14BD04B1F732
:100C80004FCF60817181072E000C880B990B0E5F8E
:100C90001F4F92CFD32CE894D4F82AE030E0853768
:100CA00039F1232D297FD22E8F3601F148F4883572
:100CB000A9F0F701868197812B96E2E10C948307D6
:100CC000803749F08837A9F7D4FE02C06894D2F87B
:100CD00020E130E00DC06894D4F8F6CF34FE03C0B4
:100CE000822F8660D82E20E132E002C028E030E07A
:100CF000F801D7FE0FC060817181828193810C5F02
:100D00001F4FA5010E940907C82ECA183D2CE89460
:100D100037F867CF6081718190E080E00E5F1F4FF0
:100D2000F0CF42FC02C0839478CF8394839475CF34
:100D3000842D867809F471CFF6CFB70180E290E078
:100D40000E94D90683948214C0F3512C73CF522C85
:100D50005818821408F46ECFF8CF842D867809F4E1
:100D60007BCF8BE241FE80E247FC8DE2B70190E051
:100D700071CFB70180E390E00E94D9069A946CCFBE
:100D80008FEF9FEF99CFFC010590615070400110EB
:100D9000D8F7809590958E0F9F1F0895FC016150A4
:100DA000704001900110D8F7809590958E0F9F1F8D
:100DB00008950F931F93CF93DF93182F092FEB0103
:100DC0008B8181FD09C01FEF0FEF812F902FDF91E5
:100DD000CF911F910F91089582FF14C02E813F8102
:100DE0008C819D81281739073CF4E881F981CF0176
:100DF00001969983888310838E819F8101969F83BA
:100E00008E83E3CFE885F985812F0995892BA1F39E
:100E1000DACFFA01AA27283051F1203181F1E89484
:100E20006F936E7F6E5F7F4F8F4F9F4FAF4FB1E0DD
:100E30003ED0B4E03CD0670F781F891F9A1FA11DD8
:100E4000680F791F8A1F911DA11D6A0F711D811DD9
:100E5000911DA11D20D009F468943F912AE0269F9E
:100E600011243019305D3193DEF6CF010895462FFD
:100E70004770405D4193B3E00FD0C9F7F6CF462FDE
:100E80004F70405D4A3318F0495D31FD4052419347
:100E900002D0A9F7EACFB4E0A69597958795779504
:100EA0006795BA95C9F700976105710508959B018B
:100EB000AC010A2E06945795479537952795BA9514
:100EC000C9F7620F731F841F951FA01D08952F92ED
:100ED0003F924F925F926F927F928F929F92AF92CA
:100EE000BF92CF92DF92EF92FF920F931F93CF9317
:100EF000DF93CDB7DEB7CA1BDB0B0FB6F894DEBFAE
:100F00000FBECDBF09942A88398848885F846E84D3
:100F10007D848C849B84AA84B984C884DF80EE801D
:100F2000FD800C811B81AA81B981CE0FD11D0FB626
:100F3000F894DEBF0FBECDBFED010895F894FFCF4A
:100F400000000000FF005F008C004C01BD009B0012
:100F5000AF0080888F979FA7AEB6BDC4CAD1D7DC3B
:100F6000E2E7EBEFF3F6F9FBFDFEFFFFFFFEFDFB13
:100F7000F9F6F3EFEBE7E2DCD7D1CAC4BDB6AEA712
:100F80009F978F888077706860585149423B352E13
:100F900028231D1814100C0906040201000000018A
:100FA000020406090C1014181D23282E353B424953
:100FB000515860687077805261775F5670703D2538
:100FC000643A0046696C74657265645F5670703D82
:0A0FD00025643A002C000D0A000011
:00000001FF
