:100000000C9435000C945D000C945D000C945D0024
:100010000C945D000C945D000C945D000C945D00EC
:100020000C945D000C945D000C945D000C945D00DC
:100030000C945D000C945D000C945D000C945D00CC
:100040000C9436020C945D000C9404020C94DE01B6
:100050000C945D000C945D000C945D000C945D00AC
:100060000C945D000C945D00590411241FBECFEF69
:10007000D8E0DEBFCDBF11E0A0E0B1E0E0E1FFE0FD
:1000800002C005900D92A438B107D9F726E0A4E884
:10009000B1E001C01D92AC32B207E1F710E0C5E358
:1000A000D0E004C02197FE010E94A804C433D10708
:1000B000C9F70E9480020C9486070C940000AF924E
:1000C000BF92CF92DF92EF92FF920F931F93CF9345
:1000D000DF936C017B018B01040F151FEB015E01A7
:1000E000AE18BF08C017D10759F06991D601ED913C
:1000F000FC910190F081E02DC6010995892B79F7DB
:10010000C501DF91CF911F910F91FF90EF90DF908C
:10011000CF90BF90AF900895FC01538D448D252F53
:1001200030E0842F90E0821B930B541710F0CF9691
:10013000089501970895FC01918D828D981761F0C3
:10014000A28DAE0FBF2FB11D5D968C91928D9F5FDA
:100150009F73928F90E008958FEF9FEF0895FC01B9
:10016000918D828D981731F0828DE80FF11D858D6C
:1001700090E008958FEF9FEF0895FC01918D228DFF
:10018000892F90E0805C9F4F821B91098F73992784
:1001900008958FE895E00E94BD0021E0892B09F4C5
:1001A00020E0822F089580E090E0892B29F00E94C2
:1001B000C90081110C9400000895FC01A48DA80FC2
:1001C000B92FB11DA35ABF4F2C91848D90E0019699
:1001D0008F739927848FA689B7892C93A089B189B9
:1001E0008C91837080648C93938D848D981306C05A
:1001F0000288F389E02D80818F7D80830895EF92BE
:10020000FF920F931F93CF93DF93EC0181E0888FD0
:100210009B8D8C8D98131AC0E889F989808185FFA0
:1002200015C09FB7F894EE89FF896083E889F98942
:1002300080818370806480839FBF81E090E0DF9144
:10024000CF911F910F91FF90EF900895F62E0B8D97
:1002500010E00F5F1F4F0F731127E02E8C8D8E1152
:100260000CC00FB607FCFACFE889F989808185FFB9
:10027000F5CFCE010E94DD00F1CFEB8DEC0FFD2F0D
:10028000F11DE35AFF4FF0829FB7F8940B8FEA8974
:10029000FB8980818062CFCFCF93DF93EC01888D83
:1002A0008823B9F0AA89BB89E889F9898C9185FDF1
:1002B00003C0808186FD0DC00FB607FCF7CF8C917F
:1002C00085FFF2CF808185FFEDCFCE010E94DD005A
:1002D000E9CFDF91CF910895FC0101900020E9F76B
:1002E0003197AF01481B590BBC018FE895E00C9486
:1002F0005F008F929F92AF92BF920F931F93CF9305
:10030000DF93CDB7DEB7A1970FB6F894DEBF0FBE6F
:10031000CDBF19A2423008F44AE08E010F5D1F4F95
:10032000842E912CB12CA12CA50194010E9486044D
:10033000E62FB901CA01EA30F4F4E05DD801EE938A
:100340008D01232B242B252B79F790E080E010974B
:1003500019F0CD010E946C01A1960FB6F894DEBF92
:100360000FBECDBFDF91CF911F910F91BF90AF9086
:100370009F908F900895E95CE1CFCF92DF92EF924A
:10038000FF92CF93DF936B017C016DE28FE895E0E4
:100390000E94FF00EC0166277727CB016C197D09CD
:1003A0008E099F094AE00E9479018C0F9D1FDF9101
:1003B000CF91FF90EF90DF90CF9008951F920F9212
:1003C0000FB60F9211242F933F934F935F936F9328
:1003D0007F938F939F93AF93BF93EF93FF938FE898
:1003E00095E00E94DD00FF91EF91BF91AF919F9149
:1003F0008F917F916F915F914F913F912F910F90CE
:100400000FBE0F901F9018951F920F920FB60F926C
:1004100011242F938F939F93EF93FF93E0919F0568
:10042000F091A0058081E091A505F091A60582FDDF
:100430001BC090818091A8058F5F8F732091A905C3
:10044000821741F0E091A805F0E0E157FA4F958F4F
:100450008093A805FF91EF919F918F912F910F901D
:100460000FBE0F901F9018958081F4CF1F920F92AE
:100470000FB60F9211242F933F938F939F93AF93B7
:10048000BF938091850190918601A0918701B091E1
:1004900088013091840123E0230F2D3758F5019610
:1004A000A11DB11D20938401809385019093860145
:1004B000A0938701B09388018091890190918A016E
:1004C000A0918B01B0918C010196A11DB11D80936B
:1004D000890190938A01A0938B01B0938C01BF9105
:1004E000AF919F918F913F912F910F900FBE0F90E1
:1004F0001F90189526E8230F0296A11DB11DD2CF9B
:10050000CF93DF93CDB7DEB768970FB6F894DEBF11
:100510000FBECDBF789484B5826084BD84B5816000
:1005200084BD85B5826085BD85B5816085BD8091BE
:100530006E00816080936E00109281008091810036
:10054000826080938100809181008160809381002E
:10055000809180008160809380008091B1008460F0
:100560008093B1008091B00081608093B000809151
:100570007A00846080937A0080917A008260809310
:100580007A0080917A00816080937A0080917A006D
:10059000806880937A001092C1008FEF8AB9E09151
:1005A0009F05F091A00582E08083E0919B05F0918A
:1005B0009C051082E0919D05F0919E0580E180836D
:1005C0001092A705E091A305F091A40586E0808331
:1005D000E091A105F091A205808180618083E09186
:1005E000A105F091A205808188608083E091A1053A
:1005F000F091A205808180688083E091A105F0914F
:10060000A20580818F7D808380917A0084608093B1
:100610007A0080917A008D7F80937A0080917A00B1
:100620008E7F80937A0074E6872E912CA12CB12CBA
:10063000E7E72E2EE1E03E2E9E012F5F3F4F69013E
:10064000FBE54F2E512C612C712C3FB7F894809113
:10065000890190918A01A0918B01B0918C0126B5FE
:10066000A89B05C02F3F19F00196A11DB11D3FBFEA
:10067000BA2FA92F982F88277C018D01E20EF11C3B
:10068000011D111D62E0EE0CFF1C001F111F6A9579
:10069000D1F78091990181110BC040929501509240
:1006A0009601609297017092980131E03093990120
:1006B0008091910190919201A0919301B091940148
:1006C000B801A701481B590B6A0B7B0B8091950160
:1006D00090919601A0919701B09198014817590700
:1006E0006A077B0760F160918D0170918E018091A6
:1006F0008F0190919001A50194010E9486046E5E85
:100700007E4FDB018C918BB9E0929101F0929201C6
:10071000009393011093940180918D0190918E012B
:10072000A0918F01B09190010196A11DB11D809300
:100730008D0190938E01A0938F01B09390016091F1
:10074000890570918A0520918B0530918C05409127
:100750008D0550918E05D801C701821B930BA40B08
:10076000B50B843F9140A105B105E0F1643FF1E094
:100770007F07C0F520E420937C0080917A0080649C
:1007800080937A0080917A0086FDFCCF30917800CA
:10079000209179008091890590918A05FC01EE0FE6
:1007A000FF1FEF55FE4F2327322723273183208356
:1007B000E0928B05F0928C0500938D0510938E05C9
:1007C000019690938A0580938905E0E0F0E0EF2B95
:1007D00009F43BCF0E94C900882309F436CF0E9458
:1007E000000033CF643F714081F709E612E081EAEF
:1007F000E82E81E0F82E4FEF53E090E080E0A5E096
:1008000009381A0771F0F801219131918F0182178F
:10081000930728F02417350708F4A9019C01C901A2
:10082000EECF841B950B9F938F933F922F92DF9275
:10083000CF920E94AE040F900F900F900F900F90E8
:100840000F900E151F0531F1C6010E946C01D701F2
:100850006D917D917D0190E080E04AE00E947901F8
:100860008FE791E00E946C014AE060E070E0CB010C
:100870000E9479018FE791E00E946C014AE06FEFDE
:1008800073E080E090E00E94790181E891E00E94AD
:100890006C01D7CF8FE895E00E94BD00892BD1F382
:1008A00010928A05109289058FE895E00E949B00BE
:1008B0008CCFEFE8F5E01382128288EE93E0A0E09F
:1008C000B0E084839583A683B78384E091E091832D
:1008D000808385EC90E09587848784EC90E097870F
:1008E000868780EC90E0918B808B81EC90E0938BFD
:1008F000828B82EC90E0958B848B86EC90E0978BDA
:10090000868B118E128E138E148E0895A1E21A2EEC
:10091000AA1BBB1BFD010DC0AA1FBB1FEE1FFF1FA3
:10092000A217B307E407F50720F0A21BB30BE40BF3
:10093000F50B661F771F881F991F1A9469F760953A
:100940007095809590959B01AC01BD01CF010895F4
:10095000EE0FFF1F0590F491E02D0994AEE0B0E09A
:10096000E4EBF4E00C945D070D891E8986E08C832E
:100970001A8309838FEF9FE79E838D83AE01475EC5
:100980005F4F6F89788DCE0101960E94D1042F812F
:100990003885020F131FF80110822E96E4E00C94A4
:1009A0007907ABE0B0E0E7EDF4E00C944F077C0191
:1009B0003B018A01FC0117821682838181FFC8C135
:1009C000CE0101965C01F7019381F30193FD8591BE
:1009D00093FF81913F01882309F453C1853239F493
:1009E00093FD859193FF81913F01853229F4B701F1
:1009F00090E00E94C106E7CF912C212C312CFFE121
:100A0000F31538F08B3211F190F4803209F1833212
:100A100029F137FC3CC020ED280F2A3050F536FE76
:100A200020C08AE0989E200D1124922E06C08D329F
:100A300091F0803371F7689430F8F30193FD85915C
:100A400093FF81913F018111DACF21C0689431F881
:100A5000689432F8F2CF689433F8EFCF689434F8A2
:100A6000ECCFEAE02E9E200D1124222E689435F85A
:100A7000E4CF8E3229F436FC04C1689436F8DDCF19
:100A80008C3619F4689437F8D8CF8836B1F2982F9D
:100A90009F7D95549330E0F08336A1F18337C1F107
:100AA000833509F063C02801F2E04F0E511CF801B4
:100AB000C080D180692D70E036FC02C06FEF7FEFFF
:100AC000C6010E94AB064C01689437F882010AC047
:100AD0000C5F1F4FFFE3F98388248394912C6501F9
:100AE000E89437F833FE2DC0522C8114910471F52F
:100AF000552009F468CFB70180E290E00E94C1065A
:100B00005A94F6CFF801808189830E5F1F4FE4CF9E
:100B10002801F2E04F0E511CF801C080D180692DF0
:100B200070E036FC02C06FEF7FEFC6010E94B60690
:100B30004C018201D5CFB70180E290E00E94C1064E
:100B40002A942814190409F0B0F7CECFF60137FC27
:100B5000859137FE81916F01B70190E00E94C10637
:100B600051105A94F1E08F1A9108BFCF843619F0D2
:100B7000893609F077C0F80137FE6BC0608171815A
:100B8000828193810C5F1F4FF32DFF763F2E97FFDD
:100B900009C090958095709561957F4F8F4F9F4FBD
:100BA000689437F82AE030E0A5010E94F106C82ECB
:100BB000CA188C2C432C36FE0CC0E89440F8C9149B
:100BC00040F434FE05C032FC03C0F32DFE7E4F2EF0
:100BD000892C44FE95C0FE01EC0DF11D808180330F
:100BE00009F087C0242D297E422E842D8870582E2E
:100BF00043FC95C040FE8FC09C2C821418F42C0C32
:100C0000922C981844FE91C0B70180E390E00E94B6
:100C1000C10642FE09C088E790E041FE02C088E5B7
:100C200090E0B7010E94C106C91408F48AC0CA94B2
:100C3000D12C9FEFC91AD90ACA0CDB1CF60182918C
:100C40006F01B70190E00E94C106AC14BD04B1F77A
:100C50004FCF60817181072E000C880B990B0E5FBE
:100C60001F4F92CFD32CE894D4F82AE030E0853798
:100C700039F1232D297FD22E8F3601F148F48835A2
:100C8000A9F0F701868197812B96E2E10C946B071E
:100C9000803749F08837A9F7D4FE02C06894D2F8AB
:100CA00020E130E00DC06894D4F8F6CF34FE03C0E4
:100CB000822F8660D82E20E132E002C028E030E0AA
:100CC000F801D7FE0FC060817181828193810C5F32
:100CD0001F4FA5010E94F106C82ECA183D2CE894AA
:100CE00037F867CF6081718190E080E00E5F1F4F21
:100CF000F0CF42FC02C0839478CF8394839475CF65
:100D0000842D867809F471CFF6CFB70180E290E0A8
:100D10000E94C10683948214C0F3512C73CF522CCD
:100D20005818821408F46ECFF8CF842D867809F411
:100D30007BCF8BE241FE80E247FC8DE2B70190E081
:100D400071CFB70180E390E00E94C1069A946CCF06
:100D50008FEF9FEF99CFFC0105906150704001101B
:100D6000D8F7809590958E0F9F1F0895FC016150D4
:100D7000704001900110D8F7809590958E0F9F1FBD
:100D800008950F931F93CF93DF93182F092FEB0133
:100D90008B8181FD09C01FEF0FEF812F902FDF9115
:100DA000CF911F910F91089582FF14C02E813F8132
:100DB0008C819D81281739073CF4E881F981CF01A6
:100DC00001969983888310838E819F8101969F83EA
:100DD0008E83E3CFE885F985812F0995892BA1F3CF
:100DE000DACFFA01AA27283051F1203181F1E894B5
:100DF0006F936E7F6E5F7F4F8F4F9F4FAF4FB1E00E
:100E00003ED0B4E03CD0670F781F891F9A1FA11D08
:100E1000680F791F8A1F911DA11D6A0F711D811D09
:100E2000911DA11D20D009F468943F912AE0269FCE
:100E300011243019305D3193DEF6CF010895462F2D
:100E40004770405D4193B3E00FD0C9F7F6CF462F0E
:100E50004F70405D4A3318F0495D31FD4052419377
:100E600002D0A9F7EACFB4E0A69597958795779534
:100E70006795BA95C9F700976105710508959B01BB
:100E8000AC010A2E06945795479537952795BA9544
:100E9000C9F7620F731F841F951FA01D08952F921D
:100EA0003F924F925F926F927F928F929F92AF92FA
:100EB000BF92CF92DF92EF92FF920F931F93CF9347
:100EC000DF93CDB7DEB7CA1BDB0B0FB6F894DEBFDE
:100ED0000FBECDBF09942A88398848885F846E8404
:100EE0007D848C849B84AA84B984C884DF80EE804E
:100EF000FD800C811B81AA81B981CE0FD11D0FB657
:100F0000F894DEBF0FBECDBFED010895F894FFCF7A
:100F100000000000FF005F008C004C01BD009B0042
:100F2000AF0080888F979FA7AEB6BDC4CAD1D7DC6B
:100F3000E2E7EBEFF3F6F9FBFDFEFFFFFFFEFDFB43
:100F4000F9F6F3EFEBE7E2DCD7D1CAC4BDB6AEA742
:100F50009F978F888077706860585149423B352E43
:100F600028231D1814100C090604020100000001BA
:100F7000020406090C1014181D23282E353B424983
:100F8000515860687077805670703D25643A002C27
:040F9000000D0A0046
:00000001FF
