:100000000C9435000C945D000C945D000C945D0024
:100010000C945D000C945D000C945D000C945D00EC
:100020000C945D000C945D000C945D000C945D00DC
:100030000C945D000C945D000C945D000C945D00CC
:100040000C9436020C945D000C9404020C94DE01B6
:100050000C945D000C945D000C945D000C945D00AC
:100060000C945D000C945D00820411241FBECFEF40
:10007000D8E0DEBFCDBF11E0A0E0B1E0E8EFF2E1F3
:1000800002C005900D92A835B107D9F728E0A8E580
:10009000B1E001C01D92A835B207E1F710E0C5E359
:1000A000D0E004C02197FE010E949C06C433D10712
:1000B000C9F70E9480020C947A090C940000AF9258
:1000C000BF92CF92DF92EF92FF920F931F93CF9345
:1000D000DF936C017B018B01040F151FEB015E01A7
:1000E000AE18BF08C017D10759F06991D601ED913C
:1000F000FC910190F081E02DC6010995892B79F7DB
:10010000C501DF91CF911F910F91FF90EF90DF908C
:10011000CF90BF90AF900895FC01538D448D252F53
:1001200030E0842F90E0821B930B541710F0CF9691
:10013000089501970895FC01918D828D981761F0C3
:10014000A28DAE0FBF2FB11D5D968C91928D9F5FDA
:100150009F73928F90E008958FEF9FEF0895FC01B9
:10016000918D828D981731F0828DE80FF11D858D6C
:1001700090E008958FEF9FEF0895FC01918D228DFF
:10018000892F90E0805C9F4F821B91098F73992784
:1001900008958BEB97E00E94BD0021E0892B09F4C4
:1001A00020E0822F089580E090E0892B29F00E94C2
:1001B000C90081110C9400000895FC01A48DA80FC2
:1001C000B92FB11DA35ABF4F2C91848D90E0019699
:1001D0008F739927848FA689B7892C93A089B189B9
:1001E0008C91837080648C93938D848D981306C05A
:1001F0000288F389E02D80818F7D80830895EF92BE
:10020000FF920F931F93CF93DF93EC0181E0888FD0
:100210009B8D8C8D98131AC0E889F989808185FFA0
:1002200015C09FB7F894EE89FF896083E889F98942
:1002300080818370806480839FBF81E090E0DF9144
:10024000CF911F910F91FF90EF900895F62E0B8D97
:1002500010E00F5F1F4F0F731127E02E8C8D8E1152
:100260000CC00FB607FCFACFE889F989808185FFB9
:10027000F5CFCE010E94DD00F1CFEB8DEC0FFD2F0D
:10028000F11DE35AFF4FF0829FB7F8940B8FEA8974
:10029000FB8980818062CFCFCF93DF93EC01888D83
:1002A0008823B9F0AA89BB89E889F9898C9185FDF1
:1002B00003C0808186FD0DC00FB607FCF7CF8C917F
:1002C00085FFF2CF808185FFEDCFCE010E94DD005A
:1002D000E9CFDF91CF910895FC0101900020E9F76B
:1002E0003197AF01481B590BBC018BEB97E00C9485
:1002F0005F008F929F92AF92BF920F931F93CF9305
:10030000DF93CDB7DEB7A1970FB6F894DEBF0FBE6F
:10031000CDBF19A2423008F44AE08E010F5D1F4F95
:10032000842E912CB12CA12CA50194010E9466066B
:10033000E62FB901CA01EA30F4F4E05DD801EE938A
:100340008D01232B242B252B79F790E080E010974B
:1003500019F0CD010E946C01A1960FB6F894DEBF92
:100360000FBECDBFDF91CF911F910F91BF90AF9086
:100370009F908F900895E95CE1CFCF92DF92EF924A
:10038000FF92CF93DF936B017C016DE28BEB97E0E3
:100390000E94FF00EC0166277727CB016C197D09CD
:1003A0008E099F094AE00E9479018C0F9D1FDF9101
:1003B000CF91FF90EF90DF90CF9008951F920F9212
:1003C0000FB60F9211242F933F934F935F936F9328
:1003D0007F938F939F93AF93BF93EF93FF938BEB99
:1003E00097E00E94DD00FF91EF91BF91AF919F9147
:1003F0008F917F916F915F914F913F912F910F90CE
:100400000FBE0F901F9018951F920F920FB60F926C
:1004100011242F938F939F93EF93FF93E091CB073A
:10042000F091CC078081E091D107F091D20782FD55
:100430001BC090818091D4078F5F8F732091D50767
:10044000821741F0E091D407F0E0E554F84F958F22
:100450008093D407FF91EF919F918F912F910F90EF
:100460000FBE0F901F9018958081F4CF1F920F92AE
:100470000FB60F9211242F933F938F939F93AF93B7
:10048000BF938091590190915A01A0915B01B09165
:100490005C013091580123E0230F2D3758F5019668
:1004A000A11DB11D209358018093590190935A01C9
:1004B000A0935B01B0935C0180915D0190915E011E
:1004C000A0915F01B09160010196A11DB11D8093C3
:1004D0005D0190935E01A0935F01B0936001BF91B5
:1004E000AF919F918F913F912F910F900FBE0F90E1
:1004F0001F90189526E8230F0296A11DB11DD2CF9B
:10050000CF93DF93CDB7DEB761970FB6F894DEBF18
:100510000FBECDBF789484B5826084BD84B5816000
:1005200084BD85B5826085BD85B5816085BD8091BE
:100530006E00816080936E00109281008091810036
:10054000826080938100809181008160809381002E
:10055000809180008160809380008091B1008460F0
:100560008093B1008091B00081608093B000809151
:100570007A00846080937A0080917A008260809310
:100580007A0080917A00816080937A0080917A006D
:10059000806880937A001092C1008FEF8AB9E09151
:1005A000CB07F091CC0782E08083E091C707F09100
:1005B000C8071082E091C907F091CA0780E18083E3
:1005C0001092D307E091CF07F091D00786E08083A7
:1005D000E091CD07F091CE07808180618083E0912A
:1005E000CD07F091CE07808188608083E091CD07B0
:1005F000F091CE07808180688083E091CD07F091F3
:10060000CE0780818F7D808380917A008460809383
:100610007A0080917A008D7F80937A0080917A00B1
:100620008E7F80937A0072E3872E912CA12CB12CBF
:100630008E010F5F1F4F1801E0E54E2E512C612CEB
:10064000712C9FB7F894C0905D01D0905E01E0904E
:100650005F01F090600186B5A89B07C08F3F29F02D
:100660001FEFC11AD10AE10AF10A9FBFFE2CED2C3F
:10067000DC2CCC24C80ED11CE11CF11C62E0CC0C9B
:10068000DD1CEE1CFF1C6A95D1F780916D01811174
:100690000BC04092690150926A0160926B017092A6
:1006A0006C0121E020936D018091650190916601BC
:1006B000A0916701B0916801B701A601481B590BD1
:1006C0006A0B7B0B8091690190916A01A0916B018B
:1006D000B0916C01481759076A077B0760F1609178
:1006E0006101709162018091630190916401A501A3
:1006F00094010E9466066E5E7E4FFB0180818BB97D
:10070000C0926501D0926601E0926701F0926801A3
:100710008091610190916201A0916301B0916401A7
:100720000196A11DB11D8093610190936201A09378
:100730006301B09364018091B5079091B607409131
:10074000B7075091B8076091B9077091BA07970140
:100750008601041B150B260B370BB901A801403984
:10076000514061057105E0F1803223E09207C0F548
:1007700030E430937C0080917A00806480937A002A
:1007800080917A0086FDFCCF30917800209179002D
:100790008091B5079091B607FC01EE0FFF1FEB5853
:1007A000FE4F23273227232731832083C092B707A8
:1007B000D092B807E092B907F092BA0701969093E9
:1007C000B6078093B50700E010E0012B09F439CF9C
:1007D0000E94C900882309F434CF0E94000031CF61
:1007E0008032934081F70DE312E025E731E0398B49
:1007F000288B2FEF33E070E060E085EB97E0801707
:10080000910771F0F801819191918F016817790733
:1008100028F08217930708F49C01CB01BC01EDCFAF
:10082000621B730B90E080E00E94570520E030E0EF
:1008300040EA50E40E94E50520E030EC4FE754E444
:100840000E94AF046B017C0120E030E048EC52E4F0
:100850000E94E5050E942105CB0164E670E00E943C
:1008600052069F938F93C701B6010E9421057F9383
:100870006F9324E431E03F932F933F922F920E9495
:10088000A2060FB6F894DEBF0FBECDBF2889398906
:100890000217130741F1C1010E946C01E889F9892F
:1008A00061917191F98BE88B90E080E04AE00E94C1
:1008B000790182E591E00E946C014AE060E070E01D
:1008C000CB010E94790182E591E00E946C014AE02F
:1008D0006FEF73E080E090E00E94790184E591E0A1
:1008E0000E946C01D3CF8BEB97E00E94BD00892B57
:1008F000D1F31092B6071092B5078BEB97E00E94E8
:100900009B0061CFEBEBF7E01382128288EE93E05D
:10091000A0E0B0E084839583A683B78384E091E070
:100920009183808385EC90E09587848784EC90E0C8
:100930009787868780EC90E0918B808B81EC90E0AC
:10094000938B828B82EC90E0958B848B86EC90E08D
:10095000978B868B118E128E138E148E08950E94A3
:10096000C3040C94AB050E94A40558F00E949D0599
:1009700040F029F45F3F29F00C94940551110C9438
:10098000DF050C949A050E94BC0568F39923B1F326
:10099000552391F3951B550BBB27AA2762177307A5
:1009A000840738F09F5F5F4F220F331F441FAA1F39
:1009B000A9F335D00E2E3AF0E0E832D091505040F5
:1009C000E695001CCAF72BD0FE2F29D0660F771FA3
:1009D000881FBB1F261737074807AB07B0E809F089
:1009E000BB0B802DBF01FF2793585F4F3AF09E3F0E
:1009F000510578F00C9494050C94DF055F3FE4F307
:100A0000983ED4F3869577956795B795F7959F5F50
:100A1000C9F7880F911D9695879597F90895E1E09C
:100A2000660F771F881FBB1F621773078407BA07FB
:100A300020F0621B730B840BBA0BEE1F88F7E09556
:100A400008950E9428056894B1110C94DF0508955B
:100A50000E94C40588F09F5798F0B92F9927B75185
:100A6000B0F0E1F0660F771F881F991F1AF0BA9552
:100A7000C9F714C0B13091F00E94DE05B1E00895CD
:100A80000C94DE05672F782F8827B85F39F0B93FBF
:100A9000CCF3869577956795B395D9F73EF4909505
:100AA0008095709561957F4F8F4F9F4F0895E89483
:100AB00009C097FB3EF490958095709561957F4FA6
:100AC0008F4F9F4F9923A9F0F92F96E9BB27939554
:100AD000F695879577956795B795F111F8CFFAF464
:100AE000BB0F11F460FF1BC06F5F7F4F8F4F9F4F95
:100AF00016C0882311F096E911C0772321F09EE8F3
:100B0000872F762F05C0662371F096E8862F70E058
:100B100060E02AF09A95660F771F881FDAF7880F32
:100B20009695879597F9089597F99F6780E870E003
:100B300060E008959FEF80EC089500240A94161653
:100B4000170618060906089500240A9412161306BB
:100B5000140605060895092E0394000C11F4882349
:100B600052F0BB0F40F4BF2B11F460FF04C06F5F65
:100B70007F4F8F4F9F4F089557FD9058440F551F3B
:100B800059F05F3F71F04795880F97FB991F61F00F
:100B90009F3F79F087950895121613061406551F86
:100BA000F2CF4695F1DF08C0161617061806991FF2
:100BB000F1CF86957105610508940895E894BB27E7
:100BC00066277727CB0197F908950E94F8050C94C2
:100BD000AB050E949D0538F00E94A40520F09523E6
:100BE00011F00C9494050C949A0511240C94DF05D3
:100BF0000E94BC0570F3959FC1F3950F50E0551FFF
:100C0000629FF001729FBB27F00DB11D639FAA2761
:100C1000F00DB11DAA1F649F6627B00DA11D661FB0
:100C2000829F2227B00DA11D621F739FB00DA11DD1
:100C3000621F839FA00D611D221F749F3327A00D8B
:100C4000611D231F849F600D211D822F762F6A2F27
:100C500011249F5750409AF0F1F088234AF0EE0F8C
:100C6000FF1FBB1F661F771F881F91505040A9F7B9
:100C70009E3F510580F00C9494050C94DF055F3F76
:100C8000E4F3983ED4F3869577956795B795F795F5
:100C9000E7959F5FC1F7FE2B880F911D969587956D
:100CA00097F9089597FB072E16F4009407D077FD67
:100CB00009D00E94880607FC05D03EF490958195E6
:100CC0009F4F0895709561957F4F0895A1E21A2E68
:100CD000AA1BBB1BFD010DC0AA1FBB1FEE1FFF1FE0
:100CE000A217B307E407F50720F0A21BB30BE40B30
:100CF000F50B661F771F881F991F1A9469F7609577
:100D00007095809590959B01AC01BD01CF01089530
:100D1000AA1BBB1B51E107C0AA1FBB1FA617B70721
:100D200010F0A61BB70B881F991F5A95A9F780953D
:100D30009095BC01CD010895EE0FFF1F0590F49131
:100D4000E02D0994AEE0B0E0E8EAF6E00C94510939
:100D50000D891E8986E08C831A8309838FEF9FE7B4
:100D60009E838D83AE01475E5F4F6F89788DCE0184
:100D700001960E94C5062F813885020F131FF801C6
:100D800010822E96E4E00C946D09ABE0B0E0EBEC41
:100D9000F6E00C9443097C013B018A01FC011782B7
:100DA0001682838181FFC8C1CE0101965C01F701E3
:100DB0009381F30193FD859193FF81913F018823F6
:100DC00009F453C1853239F493FD859193FF8191E4
:100DD0003F01853229F4B70190E00E94B508E7CFC2
:100DE000912C212C312CFFE1F31538F08B3211F1CD
:100DF00090F4803209F1833229F137FC3CC020EDB8
:100E0000280F2A3050F536FE20C08AE0989E200D2B
:100E10001124922E06C08D3291F0803371F76894C0
:100E200030F8F30193FD859193FF81913F0181118A
:100E3000DACF21C0689431F8689432F8F2CF689420
:100E400033F8EFCF689434F8ECCFEAE02E9E200D13
:100E50001124222E689435F8E4CF8E3229F436FC22
:100E600004C1689436F8DDCF8C3619F4689437F8ED
:100E7000D8CF8836B1F2982F9F7D95549330E0F00B
:100E80008336A1F18337C1F1833509F063C02801AE
:100E9000F2E04F0E511CF801C080D180692D70E046
:100EA00036FC02C06FEF7FEFC6010E949F084C0125
:100EB000689437F882010AC00C5F1F4FFFE3F98383
:100EC00088248394912C6501E89437F833FE2DC073
:100ED000522C8114910471F5552009F468CFB701A3
:100EE00080E290E00E94B5085A94F6CFF801808124
:100EF00089830E5F1F4FE4CF2801F2E04F0E511C93
:100F0000F801C080D180692D70E036FC02C06FEF1F
:100F10007FEFC6010E94AA084C018201D5CFB7011C
:100F200080E290E00E94B5082A942814190409F080
:100F3000B0F7CECFF60137FC859137FE81916F0176
:100F4000B70190E00E94B50851105A94F1E08F1A51
:100F50009108BFCF843619F0893609F077C0F801BF
:100F600037FE6BC060817181828193810C5F1F4F5E
:100F7000F32DFF763F2E97FF09C0909580957095D1
:100F800061957F4F8F4F9F4F689437F82AE030E08C
:100F9000A5010E94E508C82ECA188C2C432C36FEE9
:100FA0000CC0E89440F8C91440F434FE05C032FC8B
:100FB00003C0F32DFE7E4F2E892C44FE95C0FE010A
:100FC000EC0DF11D8081803309F087C0242D297E2E
:100FD000422E842D8870582E43FC95C040FE8FC051
:100FE0009C2C821418F42C0C922C981844FE91C05E
:100FF000B70180E390E00E94B50842FE09C088E78F
:1010000090E041FE02C088E590E0B7010E94B5087B
:10101000C91408F48AC0CA94D12C9FEFC91AD90AFE
:10102000CA0CDB1CF60182916F01B70190E00E94AF
:10103000B508AC14BD04B1F74FCF60817181072EA4
:10104000000C880B990B0E5F1F4F92CFD32CE894A6
:10105000D4F82AE030E0853739F1232D297FD22ECC
:101060008F3601F148F48835A9F0F7018681978120
:101070002B96E2E10C945F09803749F08837A9F795
:10108000D4FE02C06894D2F820E130E00DC068942C
:10109000D4F8F6CF34FE03C0822F8660D82E20E12C
:1010A00032E002C028E030E0F801D7FE0FC06081D6
:1010B0007181828193810C5F1F4FA5010E94E50819
:1010C000C82ECA183D2CE89437F867CF608171812B
:1010D00090E080E00E5F1F4FF0CF42FC02C083948F
:1010E00078CF8394839475CF842D867809F471CF5B
:1010F000F6CFB70180E290E00E94B5088394821495
:10110000C0F3512C73CF522C5818821408F46ECFB0
:10111000F8CF842D867809F47BCF8BE241FE80E204
:1011200047FC8DE2B70190E071CFB70180E390E01A
:101130000E94B5089A946CCF8FEF9FEF99CFFC0176
:101140000590615070400110D8F7809590958E0FF2
:101150009F1F0895FC016150704001900110D8F765
:10116000809590958E0F9F1F08950F931F93CF9397
:10117000DF93182F092FEB018B8181FD09C01FEF31
:101180000FEF812F902FDF91CF911F910F91089535
:1011900082FF14C02E813F818C819D8128173907E1
:1011A0003CF4E881F981CF0101969983888310830B
:1011B0008E819F8101969F838E83E3CFE885F98599
:1011C000812F0995892BA1F3DACFFA01AA272830BC
:1011D00051F1203181F1E8946F936E7F6E5F7F4F04
:1011E0008F4F9F4FAF4FB1E03ED0B4E03CD0670F80
:1011F000781F891F9A1FA11D680F791F8A1F911DD3
:10120000A11D6A0F711D811D911DA11D20D009F422
:1012100068943F912AE0269F11243019305D319364
:10122000DEF6CF010895462F4770405D4193B3E04D
:101230000FD0C9F7F6CF462F4F70405D4A3318F0F4
:10124000495D31FD4052419302D0A9F7EACFB4E0A5
:10125000A6959795879577956795BA95C9F700975D
:101260006105710508959B01AC010A2E06945795FE
:10127000479537952795BA95C9F7620F731F841F55
:10128000951FA01D08952F923F924F925F926F92EB
:101290007F928F929F92AF92BF92CF92DF92EF9206
:1012A000FF920F931F93CF93DF93CDB7DEB7CA1B87
:1012B000DB0B0FB6F894DEBF0FBECDBF09942A88B2
:1012C000398848885F846E847D848C849B84AA845A
:1012D000B984C884DF80EE80FD800C811B81AA81E7
:1012E000B981CE0FD11D0FB6F894DEBF0FBECDBFB2
:0812F000ED010895F894FFCF11
:1012F80000000000FF005F008C004C01BD009B0057
:10130800AF00808F9FAEBDCAD7E2EBF3F9FDFFFFB8
:10131800FDF9F3EBE2D7CABDAE9F8F8070605142F2
:1013280035281D140C0602000002060C141D283571
:10133800425160705670703D25642E2530326456D7
:081348003A002C000D0A000020
:00000001FF
