:100000000C9435000C945D000C945D000C945D0024
:100010000C945D000C945D000C945D000C945D00EC
:100020000C945D000C945D000C945D000C945D00DC
:100030000C945D000C945D000C945D000C945D00CC
:100040000C944C020C945D000C941A020C94F40174
:100050000C945D000C945D000C945D000C945D00AC
:100060000C945D000C945D002C0411241FBECFEF96
:10007000D8E0DEBFCDBF11E0A0E0B1E0E6E0F9E0FE
:1000800002C005900D92AC38B107D9F728E0ACE872
:10009000B1E001C01D92AE38B207E1F710E0C5E350
:1000A000D0E004C02197FE010E947B04C433D10735
:1000B000C9F70E9496020C9481040C940000AF9240
:1000C000BF92CF92DF92EF92FF920F931F93CF9345
:1000D000DF936C017B018B01040F151FEB015E01A7
:1000E000AE18BF08C017D10759F06991D601ED913C
:1000F000FC910190F081E02DC6010995892B79F7DB
:10010000C501DF91CF911F910F91FF90EF90DF908C
:10011000CF90BF90AF900895FC01538D448D252F53
:1001200030E0842F90E0821B930B541710F0CF9691
:10013000089501970895FC01918D828D981761F0C3
:10014000A28DAE0FBF2FB11D5D968C91928D9F5FDA
:100150009F73928F90E008958FEF9FEF0895FC01B9
:10016000918D828D981731F0828DE80FF11D858D6C
:1001700090E008958FEF9FEF0895FC01918D228DFF
:10018000892F90E0805C9F4F821B91098F73992784
:10019000089581EF97E00E94BD0021E0892B09F4CA
:1001A00020E0822F089580E090E0892B29F00E94C2
:1001B000C90081110C9400000895FC01A48DA80FC2
:1001C000B92FB11DA35ABF4F2C91848D90E0019699
:1001D0008F739927848FA689B7892C93A089B189B9
:1001E0008C91837080648C93938D848D981306C05A
:1001F0000288F389E02D80818F7D80830895EF92BE
:10020000FF920F931F93CF93DF93EC0181E0888FD0
:100210009B8D8C8D98131AC0E889F989808185FFA0
:1002200015C09FB7F894EE89FF896083E889F98942
:1002300080818370806480839FBF81E090E0DF9144
:10024000CF911F910F91FF90EF900895F62E0B8D97
:1002500010E00F5F1F4F0F731127E02E8C8D8E1152
:100260000CC00FB607FCFACFE889F989808185FFB9
:10027000F5CFCE010E94DD00F1CFEB8DEC0FFD2F0D
:10028000F11DE35AFF4FF0829FB7F8940B8FEA8974
:10029000FB8980818062CFCFCF93DF93EC01888D83
:1002A0008823B9F0AA89BB89E889F9898C9185FDF1
:1002B00003C0808186FD0DC00FB607FCF7CF8C917F
:1002C00085FFF2CF808185FFEDCFCE010E94DD005A
:1002D000E9CFDF91CF9108958E50806480937C00A8
:1002E00080917A00806480937A0080917A0086FD04
:1002F000FCCF809178009091790008953FB7F894F1
:100300008091910190919201A0919301B0919401FB
:1003100026B5A89B05C02F3F19F00196A11DB11D60
:100320003FBFBA2FA92F982F8827BC01CD01620F9C
:10033000711D811D911D42E0660F771F881F991F57
:100340004A95D1F70895FC0101900020E9F7319713
:10035000AF01481B590BBC0181EF97E00C945F0083
:100360008F929F92AF92BF920F931F93CF93DF9381
:10037000CDB7DEB7A1970FB6F894DEBF0FBECDBFE5
:1003800019A2423008F44AE08E010F5D1F4F842EFF
:10039000912CB12CA12CA50194010E945904E62FA7
:1003A000B901CA01EA30F4F4E05DD801EE938D01A1
:1003B000232B242B252B79F790E080E0109719F060
:1003C000CD010E94A301A1960FB6F894DEBF0FBE27
:1003D000CDBFDF91CF911F910F91BF90AF909F90B4
:1003E0008F900895E95CE1CF1F920F920FB60F92A4
:1003F00011242F933F934F935F936F937F938F932A
:100400009F93AF93BF93EF93FF9381EF97E00E9489
:10041000DD00FF91EF91BF91AF919F918F917F91FF
:100420006F915F914F913F912F910F900FBE0F9061
:100430001F9018951F920F920FB60F9211242F93B1
:100440008F939F93EF93FF93E0910108F09102083F
:100450008081E0910708F091080882FD1BC090811F
:1004600080910A088F5F8F7320910B08821741F0EB
:10047000E0910A08F0E0EF50F84F958F80930A085A
:10048000FF91EF919F918F912F910F900FBE0F9041
:100490001F9018958081F4CF1F920F920FB60F9284
:1004A00011242F933F938F939F93AF93BF9380918A
:1004B0008D0190918E01A0918F01B09190013091AA
:1004C0008C0123E0230F2D3758F50196A11DB11D96
:1004D00020938C0180938D0190938E01A0938F01C6
:1004E000B09390018091910190919201A09193011C
:1004F000B09194010196A11DB11D8093910190933B
:100500009201A0939301B0939401BF91AF919F91F9
:100510008F913F912F910F900FBE0F901F901895C4
:1005200026E8230F0296A11DB11DD2CF789484B581
:10053000826084BD84B5816084BD85B5826085BDDF
:1005400085B5816085BD80916E00816080936E006D
:10055000109281008091810082608093810080915F
:100560008100816080938100809180008160809310
:1005700080008091B10084608093B1008091B000D0
:1005800081608093B00080917A00846080937A00CB
:1005900080917A00826080937A0080917A008160F5
:1005A00080937A0080917A00806880937A0010921C
:1005B000C1008FEF8AB9E0910108F091020882E052
:1005C0008083E091FD07F091FE071082E091FF0724
:1005D000F09100088FEC808310920908E0910508E3
:1005E000F091060886E08083E0910308F09104080A
:1005F000808180618083E0910308F091040880810C
:1006000088608083E0910308F0910408808180680D
:100610008083E0910308F091040880818F7D8083BE
:1006200080917A00846080937A0080917A008D7F37
:1006300080937A0080917A008E7F80937A0034E6EE
:10064000432E512C612C712C49EE242E47E0342E80
:1006500054E6852E912CA12CB12C0E947E016B01B9
:100660007C018091A10181110BC080929D0190922B
:100670009E01A0929F01B092A00121E02093A101D0
:100680008091990190919A01A0919B01B0919C0158
:10069000B701A601481B590B6A0B7B0B80919D018A
:1006A00090919E01A0919F01B091A0014817590718
:1006B0006A077B0760F160919501709196018091C6
:1006C000970190919801A30192010E9459046E5ED6
:1006D0007E4FFB0180818BB9C0929901D0929A0123
:1006E000E0929B01F0929C0180919501909196017E
:1006F000A0919701B09198010196A11DB11D809321
:10070000950190939601A0939701B0939801C091A1
:10071000EB07D091EC078091ED079091EE07A09147
:10072000EF07B091F007A7019601281B390B4A0B80
:100730005B0BDA01C901843F9140A105B10508F4C2
:1007400042C0C03941E0D407F0F58091E9079091AB
:10075000EA078E01000F111F892B19F58EE00E9408
:100760006C01F801E753FB4F9183808381E090E0B7
:100770009093EA078093E907C092ED07D092EE07C5
:10078000E092EF07F092F00720E030E0232B09F42D
:1007900064CF0E94C900882309F45FCF0E94000043
:1007A0005CCF8FE00E946C01F801E755FE4F91830A
:1007B00080831092EA071092E9072196D093EC0704
:1007C000C093EB07D9CFC039D140F1F6C9ECD4E0E2
:1007D00009EA11E02C163D0681F187E791E00E94BD
:1007E000A3016991799190E080E04AE00E94B00114
:1007F0008CE791E00E94A3018EE791E00E94A301A3
:10080000F801619171918F0190E080E04AE00E94CF
:10081000B00188E891E00E94A3010E947E016B0173
:100820007C010E947E016C197D098E099F09683E3A
:1008300073408105910570F6F4CF81EF97E00E9437
:10084000BD00892BD1F31092EC071092EB0781EFDA
:1008500097E00E949B0098CFE1EFF7E013821282AD
:1008600088EE93E0A0E0B0E084839583A683B7830D
:1008700084E091E09183808385EC90E09587848784
:1008800084EC90E09787868780EC90E0918B808B5A
:1008900081EC90E0938B828B82EC90E0958B848B43
:1008A00086EC90E0978B868B118E128E138E148EB1
:1008B0000895A1E21A2EAA1BBB1BFD010DC0AA1FA1
:1008C000BB1FEE1FFF1FA217B307E407F50720F0B9
:1008D000A21BB30BE40BF50B661F771F881F991F34
:1008E0001A9469F760957095809590959B01AC017D
:1008F000BD01CF010895EE0FFF1F0590F491E02D8B
:060900000994F894FFCFFA
:1009060000000000FF005F008C004C01BD009B0052
:10091600AF0080888F979FA7AEB6BDC4CAD1D7DC7B
:10092600E2E7EBEFF3F6F9FBFDFEFFFFFFFEFDFB53
:10093600F9F6F3EFEBE7E2DCD7D1CAC4BDB6AEA752
:100946009F978F888077706860585149423B352E53
:1009560028231D1814100C090604020100000001CA
:10096600020406090C1014181D23282E353B424993
:10097600515860687077805261773A002C0046695A
:0C0986006C74657265643A000D0A000094
:00000001FF
