:100000000C9435000C945D000C945D000C945D0024
:100010000C945D000C945D000C945D000C945D00EC
:100020000C945D000C945D000C945D000C945D00DC
:100030000C945D000C945D000C945D000C945D00CC
:100040000C9427020C945D000C94F5010C94CF01E4
:100050000C945D000C945D000C945D000C945D00AC
:100060000C945D000C945D00EC0311241FBECFEFD7
:10007000D8E0DEBFCDBF11E0A0E0B1E0E6E8F8E0F7
:1000800002C005900D92AC37B107D9F722E0ACE77A
:10009000B1E001C01D92AC34B207E1F710E0C5E356
:1000A000D0E004C02197FE010E943B04C433D10775
:1000B000C9F70E9471020C9441040C940000AF92A5
:1000C000BF92CF92DF92EF92FF920F931F93CF9345
:1000D000DF936C017B018B01040F151FEB015E01A7
:1000E000AE18BF08C017D10759F06991D601ED913C
:1000F000FC910190F081E02DC6010995892B79F7DB
:10010000C501DF91CF911F910F91FF90EF90DF908C
:10011000CF90BF90AF900895FC01538D448D252F53
:1001200030E0842F90E0821B930B541710F0CF9691
:10013000089501970895FC01918D828D981761F0C3
:10014000A28DAE0FBF2FB11D5D968C91928D9F5FDA
:100150009F73928F90E008958FEF9FEF0895FC01B9
:10016000918D828D981731F0828DE80FF11D858D6C
:1001700090E008958FEF9FEF0895FC01918D228DFF
:10018000892F90E0805C9F4F821B91098F73992784
:1001900008958FEA91E00E94BD0021E0892B09F4C7
:1001A00020E0822F089580E090E0892B29F00E94C2
:1001B000C90081110C9400000895FC01A48DA80FC2
:1001C000B92FB11DA35ABF4F2C91848D90E0019699
:1001D0008F739927848FA689B7892C93A089B189B9
:1001E0008C91837080648C93938D848D981306C05A
:1001F0000288F389E02D80818F7D80830895EF92BE
:10020000FF920F931F93CF93DF93EC0181E0888FD0
:100210009B8D8C8D98131AC0E889F989808185FFA0
:1002200015C09FB7F894EE89FF896083E889F98942
:1002300080818370806480839FBF81E090E0DF9144
:10024000CF911F910F91FF90EF900895F62E0B8D97
:1002500010E00F5F1F4F0F731127E02E8C8D8E1152
:100260000CC00FB607FCFACFE889F989808185FFB9
:10027000F5CFCE010E94DD00F1CFEB8DEC0FFD2F0D
:10028000F11DE35AFF4FF0829FB7F8940B8FEA8974
:10029000FB8980818062CFCFCF93DF93EC01888D83
:1002A0008823B9F0AA89BB89E889F9898C9185FDF1
:1002B00003C0808186FD0DC00FB607FCF7CF8C917F
:1002C00085FFF2CF808185FFEDCFCE010E94DD005A
:1002D000E9CFDF91CF9108958E50806480937C00A8
:1002E00080917A00806480937A0080917A0086FD04
:1002F000FCCF80917800909179000895FC010190E5
:100300000020E9F73197AF01481B590BBC018FEA78
:1003100091E00C945F008F929F92AF92BF920F93E7
:100320001F93CF93DF93CDB7DEB7A1970FB6F894A5
:10033000DEBF0FBECDBF19A2423008F44AE08E01E5
:100340000F5D1F4F842E912CB12CA12CA50194017F
:100350000E941904E62FB901CA01EA30F4F4E05D05
:10036000D801EE938D01232B242B252B79F790E0D8
:1003700080E0109719F0CD010E947E01A1960FB682
:10038000F894DEBF0FBECDBFDF91CF911F910F91CB
:10039000BF90AF909F908F900895E95CE1CF1F923E
:1003A0000F920FB60F9211242F933F934F935F93A9
:1003B0006F937F938F939F93AF93BF93EF93FF932D
:1003C0008FEA91E00E94DD00FF91EF91BF91AF9124
:1003D0009F918F917F916F915F914F913F912F915D
:1003E0000F900FBE0F901F9018951F920F920FB68F
:1003F0000F9211242F938F939F93EF93FF93E0918C
:10040000BF01F091C0018081E091C501F091C6016A
:1004100082FD1BC090818091C8018F5F8F732091F6
:10042000C901821741F0E091C801F0E0E155FE4FAB
:10043000958F8093C801FF91EF919F918F912F919C
:100440000F900FBE0F901F9018958081F4CF1F92D0
:100450000F920FB60F9211242F933F938F939F9378
:10046000AF93BF9380917D0190917E01A0917F0118
:10047000B091800130917C0123E0230F2D3758F596
:100480000196A11DB11D20937C0180937D01909365
:100490007E01A0937F01B0938001809181019091B2
:1004A0008201A0918301B09184010196A11DB11D2B
:1004B0008093810190938201A0938301B093840182
:1004C000BF91AF919F918F913F912F910F900FBE50
:1004D0000F901F90189526E8230F0296A11DB11DBD
:1004E000D2CF789484B5826084BD84B5816084BDA8
:1004F00085B5826085BD85B5816085BD80916E00C2
:10050000816080936E0010928100809181008260F2
:10051000809381008091810081608093810080912F
:1005200080008160809380008091B100846080931E
:10053000B1008091B00081608093B00080917A001A
:10054000846080937A0080917A00826080937A0040
:1005500080917A00816080937A0080917A0080682F
:1005600080937A001092C1008FEF8AB9E091BF01A9
:10057000F091C00182E08083E091BB01F091BC0169
:100580001082E091BD01F091BE0110821092C7016E
:10059000E091C301F091C40186E08083E091C10144
:1005A000F091C201808180618083E091C101F0916E
:1005B000C201808188608083E091C101F091C20115
:1005C000808180688083E091C101F091C2018081C7
:1005D0008F7D808330E0232E30E0332E4BE1842E5C
:1005E00041E4942EA12CB12C11E050ED452E57E0A2
:1005F000552E612C712CC1E0D0E09FB7F894C090CB
:100600008101D0908201E0908301F090840186B551
:10061000A89B07C08F3F29F02FEFC21AD20AE20A27
:10062000F20A9FBFFE2CED2CDC2CCC24C80ED11C72
:10063000E11CF11C22E0CC0CDD1CEE1CFF1C2A95F9
:10064000D1F78091910181110AC080928D01909221
:100650008E01A0928F01B092900110939101809130
:10066000890190918A01A0918B01B0918C01B70111
:10067000A601481B590B6A0B7B0B80918D01909151
:100680008E01A0918F01B0919001481759076A0718
:100690007B0770F1609185017091860180918701DF
:1006A0009091880124E630E040E050E00E94190477
:1006B0006E5E7E4FFB0180818BB9C0928901D09222
:1006C0008A01E0928B01F0928C01809185019091DA
:1006D0008601A0918701B09188010196A11DB11DED
:1006E0008093850190938601A0938701B093880140
:1006F0008091A70181110AC04092A3015092A401E8
:100700006092A5017092A6011093A70180919F01AC
:100710009091A001A091A101B091A201B701A60101
:10072000481B590B6A0B7B0B8091A3019091A4018C
:10073000A091A501B091A601481759076A077B0748
:1007400098F180919D0190919E01892BC9F58EE0D1
:100750000E946C0190939C0180939B01D0939E0119
:10076000C0939D0160919B0170919C0190E080E09D
:100770004AE00E948B0187E791E00E947E01609130
:10078000990170919A0190E080E04AE00E948B010B
:1007900089E791E00E947E01C0929F01D092A00162
:1007A000E092A101F092A2012114310409F425CFB5
:1007B0000E94C900882309F420CF0E9400001DCFA9
:1007C0008FE00E946C0190939A018093990110929E
:1007D0009E0110929D01C6CFEFEAF1E013821282D2
:1007E00088EE93E0A0E0B0E084839583A683B7838E
:1007F00084E091E09183808385EC90E09587848705
:1008000084EC90E09787868780EC90E0918B808BDA
:1008100081EC90E0938B828B82EC90E0958B848BC3
:1008200086EC90E0978B868B118E128E138E148E31
:100830000895A1E21A2EAA1BBB1BFD010DC0AA1F21
:10084000BB1FEE1FFF1FA217B307E407F50720F039
:10085000A21BB30BE40BF50B661F771F881F991FB4
:100860001A9469F760957095809590959B01AC01FD
:10087000BD01CF010895EE0FFF1F0590F491E02D0B
:060880000994F894FFCF7B
:1008860000000000FF005F008C004C01BD009B00D3
:10089600AF0080888F979FA7AEB6BDC4CAD1D7DCFC
:1008A600E2E7EBEFF3F6F9FBFDFEFFFFFFFEFDFBD4
:1008B600F9F6F3EFEBE7E2DCD7D1CAC4BDB6AEA7D3
:1008C6009F978F888077706860585149423B352ED4
:1008D60028231D1814100C0906040201000000014B
:1008E600020406090C1014181D23282E353B424914
:0C08F600515860687077802C000D0A00DB
:107E0000112484B714BE81FFF0D085E080938100F7
:107E100082E08093C00088E18093C10086E0809377
:107E2000C20080E18093C4008EE0C9D0259A86E02C
:107E300020E33CEF91E0309385002093840096BBD3
:107E4000B09BFECF1D9AA8958150A9F7CC24DD24C4
:107E500088248394B5E0AB2EA1E19A2EF3E0BF2EE7
:107E6000A2D0813461F49FD0082FAFD0023811F036
:107E7000013811F484E001C083E08DD089C08234E0
:107E800011F484E103C0853419F485E0A6D080C0E4
:107E9000853579F488D0E82EFF2485D0082F10E0AE
:107EA000102F00270E291F29000F111F8ED06801E7
:107EB0006FC0863521F484E090D080E0DECF843638
:107EC00009F040C070D06FD0082F6DD080E0C81688
:107ED00080E7D80618F4F601B7BEE895C0E0D1E017
:107EE00062D089930C17E1F7F0E0CF16F0E7DF06D8
:107EF00018F0F601B7BEE89568D007B600FCFDCFD4
:107F0000A601A0E0B1E02C9130E011968C91119780
:107F100090E0982F8827822B932B1296FA010C0160
:107F200087BEE89511244E5F5F4FF1E0A038BF0790
:107F300051F7F601A7BEE89507B600FCFDCF97BE46
:107F4000E89526C08437B1F42ED02DD0F82E2BD052
:107F50003CD0F601EF2C8F010F5F1F4F84911BD097
:107F6000EA94F801C1F70894C11CD11CFA94CF0C13
:107F7000D11C0EC0853739F428D08EE10CD085E9AC
:107F80000AD08FE07ACF813511F488E018D01DD067
:107F900080E101D065CF982F8091C00085FFFCCF94
:107FA0009093C60008958091C00087FFFCCF809118
:107FB000C00084FD01C0A8958091C6000895E0E648
:107FC000F0E098E1908380830895EDDF803219F02E
:107FD00088E0F5DFFFCF84E1DECF1F93182FE3DFCA
:107FE0001150E9F7F2DF1F91089580E0E8DFEE27F6
:047FF000FF270994CA
:027FFE00040479
:0400000300007E007B
:00000001FF
